{
  "contractName": "FlightSuretyData",
  "abi": [
    {
      "inputs": [
        {
          "internalType": "address",
          "name": "airlineAddress",
          "type": "address"
        }
      ],
      "stateMutability": "nonpayable",
      "type": "constructor"
    },
    {
      "stateMutability": "payable",
      "type": "fallback",
      "payable": true
    },
    {
      "inputs": [
        {
          "internalType": "address",
          "name": "",
          "type": "address"
        }
      ],
      "name": "claims",
      "outputs": [
        {
          "internalType": "uint256",
          "name": "",
          "type": "uint256"
        }
      ],
      "stateMutability": "view",
      "type": "function",
      "constant": true
    },
    {
      "inputs": [
        {
          "internalType": "bytes32",
          "name": "",
          "type": "bytes32"
        },
        {
          "internalType": "uint256",
          "name": "",
          "type": "uint256"
        }
      ],
      "name": "flightInsurances",
      "outputs": [
        {
          "internalType": "address",
          "name": "passenger",
          "type": "address"
        },
        {
          "internalType": "uint256",
          "name": "amount",
          "type": "uint256"
        },
        {
          "internalType": "bool",
          "name": "isRefunded",
          "type": "bool"
        }
      ],
      "stateMutability": "view",
      "type": "function",
      "constant": true
    },
    {
      "inputs": [
        {
          "internalType": "bytes32",
          "name": "",
          "type": "bytes32"
        }
      ],
      "name": "flights",
      "outputs": [
        {
          "internalType": "address",
          "name": "airline",
          "type": "address"
        },
        {
          "internalType": "string",
          "name": "flightNumber",
          "type": "string"
        },
        {
          "internalType": "uint256",
          "name": "departureTime",
          "type": "uint256"
        },
        {
          "internalType": "string",
          "name": "departureLoc",
          "type": "string"
        },
        {
          "internalType": "string",
          "name": "arrivalLoc",
          "type": "string"
        },
        {
          "internalType": "uint8",
          "name": "statusCode",
          "type": "uint8"
        }
      ],
      "stateMutability": "view",
      "type": "function",
      "constant": true
    },
    {
      "inputs": [
        {
          "internalType": "uint256",
          "name": "",
          "type": "uint256"
        }
      ],
      "name": "registeredFlights",
      "outputs": [
        {
          "internalType": "bytes32",
          "name": "",
          "type": "bytes32"
        }
      ],
      "stateMutability": "view",
      "type": "function",
      "constant": true
    },
    {
      "stateMutability": "payable",
      "type": "receive",
      "payable": true
    },
    {
      "inputs": [],
      "name": "isOperational",
      "outputs": [
        {
          "internalType": "bool",
          "name": "",
          "type": "bool"
        }
      ],
      "stateMutability": "view",
      "type": "function",
      "constant": true
    },
    {
      "inputs": [
        {
          "internalType": "bool",
          "name": "mode",
          "type": "bool"
        }
      ],
      "name": "setOperatingStatus",
      "outputs": [],
      "stateMutability": "nonpayable",
      "type": "function"
    },
    {
      "inputs": [
        {
          "internalType": "address",
          "name": "contractAddress",
          "type": "address"
        }
      ],
      "name": "authorizeCaller",
      "outputs": [],
      "stateMutability": "nonpayable",
      "type": "function"
    },
    {
      "inputs": [
        {
          "internalType": "address",
          "name": "contractAddress",
          "type": "address"
        }
      ],
      "name": "deauthorizeContract",
      "outputs": [],
      "stateMutability": "nonpayable",
      "type": "function"
    },
    {
      "inputs": [
        {
          "internalType": "address",
          "name": "airline",
          "type": "address"
        }
      ],
      "name": "registerAirline",
      "outputs": [],
      "stateMutability": "nonpayable",
      "type": "function"
    },
    {
      "inputs": [
        {
          "internalType": "address",
          "name": "airline",
          "type": "address"
        }
      ],
      "name": "isAirlineRegistered",
      "outputs": [
        {
          "internalType": "bool",
          "name": "",
          "type": "bool"
        }
      ],
      "stateMutability": "view",
      "type": "function",
      "constant": true
    },
    {
      "inputs": [
        {
          "internalType": "address",
          "name": "airline",
          "type": "address"
        }
      ],
      "name": "isFunded",
      "outputs": [
        {
          "internalType": "bool",
          "name": "",
          "type": "bool"
        }
      ],
      "stateMutability": "view",
      "type": "function",
      "constant": true
    },
    {
      "inputs": [
        {
          "internalType": "address",
          "name": "airline",
          "type": "address"
        }
      ],
      "name": "getFunds",
      "outputs": [
        {
          "internalType": "uint256",
          "name": "amount",
          "type": "uint256"
        }
      ],
      "stateMutability": "view",
      "type": "function",
      "constant": true
    },
    {
      "inputs": [],
      "name": "getRegisteredAirlinesCount",
      "outputs": [
        {
          "internalType": "uint256",
          "name": "",
          "type": "uint256"
        }
      ],
      "stateMutability": "view",
      "type": "function",
      "constant": true
    },
    {
      "inputs": [],
      "name": "buy",
      "outputs": [],
      "stateMutability": "payable",
      "type": "function",
      "payable": true
    },
    {
      "inputs": [],
      "name": "creditInsurees",
      "outputs": [],
      "stateMutability": "pure",
      "type": "function",
      "constant": true
    },
    {
      "inputs": [],
      "name": "pay",
      "outputs": [],
      "stateMutability": "pure",
      "type": "function",
      "constant": true
    },
    {
      "inputs": [
        {
          "internalType": "address",
          "name": "airline",
          "type": "address"
        },
        {
          "internalType": "uint256",
          "name": "amount",
          "type": "uint256"
        }
      ],
      "name": "fund",
      "outputs": [],
      "stateMutability": "payable",
      "type": "function",
      "payable": true
    }
  ],
  "bytecode": "0x60806040526001600060146101000a81548160ff021916908315150217905550600160025560016003553480156200003657600080fd5b506040516200172e3803806200172e83398181016040528101906200005c919062000192565b336000806101000a81548173ffffffffffffffffffffffffffffffffffffffff021916908373ffffffffffffffffffffffffffffffffffffffff16021790555060405180604001604052806001151581526020016000815250600460008373ffffffffffffffffffffffffffffffffffffffff1673ffffffffffffffffffffffffffffffffffffffff16815260200190815260200160002060008201518160000160006101000a81548160ff0219169083151502179055506020820151816001015590505050620001c4565b600080fd5b600073ffffffffffffffffffffffffffffffffffffffff82169050919050565b60006200015a826200012d565b9050919050565b6200016c816200014d565b81146200017857600080fd5b50565b6000815190506200018c8162000161565b92915050565b600060208284031215620001ab57620001aa62000128565b5b6000620001bb848285016200017b565b91505092915050565b61155a80620001d46000396000f3fe6080604052600436106101025760003560e01c80636e861c0e11610095578063bdfd987711610064578063bdfd98771461031c578063c6788bdd14610345578063cd905dff14610382578063decebbce146103ad578063f77890ea146103ea57610109565b80636e861c0e1461028e5780637b1837de146102b757806395f561b7146102d3578063a6f2ae3a1461031257610109565b80632c388d5d116100d15780632c388d5d146101d457806336cee484146101fd578063540635b4146102145780635689b2491461025157610109565b8063010c5c9714610115578063110466ed146101525780631b9265b81461017b57806320c5375e1461019257610109565b3661010957005b6101133334610415565b005b34801561012157600080fd5b5061013c60048036038101906101379190610e0f565b610552565b6040516101499190610e57565b60405180910390f35b34801561015e57600080fd5b5061017960048036038101906101749190610e9e565b6105ab565b005b34801561018757600080fd5b50610190610656565b005b34801561019e57600080fd5b506101b960048036038101906101b49190610f01565b610658565b6040516101cb9695949392919061100b565b60405180910390f35b3480156101e057600080fd5b506101fb60048036038101906101f69190610e0f565b610859565b005b34801561020957600080fd5b50610212610941565b005b34801561022057600080fd5b5061023b600480360381019061023691906110ad565b610943565b60405161024891906110e9565b60405180910390f35b34801561025d57600080fd5b5061027860048036038101906102739190610e0f565b610967565b6040516102859190610e57565b60405180910390f35b34801561029a57600080fd5b506102b560048036038101906102b09190610e0f565b6109c3565b005b6102d160048036038101906102cc9190611104565b610415565b005b3480156102df57600080fd5b506102fa60048036038101906102f59190611144565b610aa3565b60405161030993929190611184565b60405180910390f35b61031a610b17565b005b34801561032857600080fd5b50610343600480360381019061033e9190610e0f565b610b19565b005b34801561035157600080fd5b5061036c60048036038101906103679190610e0f565b610d28565b60405161037991906111bb565b60405180910390f35b34801561038e57600080fd5b50610397610d40565b6040516103a49190610e57565b60405180910390f35b3480156103b957600080fd5b506103d460048036038101906103cf9190610e0f565b610d56565b6040516103e191906111bb565b60405180910390f35b3480156103f657600080fd5b506103ff610da2565b60405161040c91906111bb565b60405180910390f35b600060149054906101000a900460ff16610464576040517f08c379a000000000000000000000000000000000000000000000000000000000815260040161045b90611248565b60405180910390fd5b81600460008273ffffffffffffffffffffffffffffffffffffffff1673ffffffffffffffffffffffffffffffffffffffff16815260200190815260200160002060000160009054906101000a900460ff166104f4576040517f08c379a00000000000000000000000000000000000000000000000000000000081526004016104eb906112b4565b60405180910390fd5b81600460008573ffffffffffffffffffffffffffffffffffffffff1673ffffffffffffffffffffffffffffffffffffffff16815260200190815260200160002060010160008282546105469190611303565b92505081905550505050565b6000600460008373ffffffffffffffffffffffffffffffffffffffff1673ffffffffffffffffffffffffffffffffffffffff16815260200190815260200160002060000160009054906101000a900460ff169050919050565b60008054906101000a900473ffffffffffffffffffffffffffffffffffffffff1673ffffffffffffffffffffffffffffffffffffffff163373ffffffffffffffffffffffffffffffffffffffff1614610639576040517f08c379a0000000000000000000000000000000000000000000000000000000008152600401610630906113a5565b60405180910390fd5b80600060146101000a81548160ff02191690831515021790555050565b565b60056020528060005260406000206000915090508060000160009054906101000a900473ffffffffffffffffffffffffffffffffffffffff16908060010180546106a1906113f4565b80601f01602080910402602001604051908101604052809291908181526020018280546106cd906113f4565b801561071a5780601f106106ef5761010080835404028352916020019161071a565b820191906000526020600020905b8154815290600101906020018083116106fd57829003601f168201915b505050505090806002015490806003018054610735906113f4565b80601f0160208091040260200160405190810160405280929190818152602001828054610761906113f4565b80156107ae5780601f10610783576101008083540402835291602001916107ae565b820191906000526020600020905b81548152906001019060200180831161079157829003601f168201915b5050505050908060040180546107c3906113f4565b80601f01602080910402602001604051908101604052809291908181526020018280546107ef906113f4565b801561083c5780601f106108115761010080835404028352916020019161083c565b820191906000526020600020905b81548152906001019060200180831161081f57829003601f168201915b5050505050908060050160009054906101000a900460ff16905086565b60008054906101000a900473ffffffffffffffffffffffffffffffffffffffff1673ffffffffffffffffffffffffffffffffffffffff163373ffffffffffffffffffffffffffffffffffffffff16146108e7576040517f08c379a00000000000000000000000000000000000000000000000000000000081526004016108de906113a5565b60405180910390fd5b60018060008373ffffffffffffffffffffffffffffffffffffffff1673ffffffffffffffffffffffffffffffffffffffff16815260200190815260200160002060006101000a81548160ff02191690831515021790555050565b565b6006818154811061095357600080fd5b906000526020600020016000915090505481565b600080600460008473ffffffffffffffffffffffffffffffffffffffff1673ffffffffffffffffffffffffffffffffffffffff168152602001908152602001600020600101549050678ac7230489e80000811015915050919050565b60008054906101000a900473ffffffffffffffffffffffffffffffffffffffff1673ffffffffffffffffffffffffffffffffffffffff163373ffffffffffffffffffffffffffffffffffffffff1614610a51576040517f08c379a0000000000000000000000000000000000000000000000000000000008152600401610a48906113a5565b60405180910390fd5b600160008273ffffffffffffffffffffffffffffffffffffffff1673ffffffffffffffffffffffffffffffffffffffff16815260200190815260200160002060006101000a81549060ff021916905550565b60076020528160005260406000208181548110610abf57600080fd5b9060005260206000209060030201600091509150508060000160009054906101000a900473ffffffffffffffffffffffffffffffffffffffff16908060010154908060020160009054906101000a900460ff16905083565b565b600060149054906101000a900460ff16610b68576040517f08c379a0000000000000000000000000000000000000000000000000000000008152600401610b5f90611248565b60405180910390fd5b600160003373ffffffffffffffffffffffffffffffffffffffff1673ffffffffffffffffffffffffffffffffffffffff16815260200190815260200160002060009054906101000a900460ff16610bf4576040517f08c379a0000000000000000000000000000000000000000000000000000000008152600401610beb90611498565b60405180910390fd5b80600460008273ffffffffffffffffffffffffffffffffffffffff1673ffffffffffffffffffffffffffffffffffffffff16815260200190815260200160002060000160009054906101000a900460ff1615610c85576040517f08c379a0000000000000000000000000000000000000000000000000000000008152600401610c7c90611504565b60405180910390fd5b60405180604001604052806001151581526020016000815250600460008473ffffffffffffffffffffffffffffffffffffffff1673ffffffffffffffffffffffffffffffffffffffff16815260200190815260200160002060008201518160000160006101000a81548160ff02191690831515021790555060208201518160010155905050600160026000828254610d1d9190611303565b925050819055505050565b60086020528060005260406000206000915090505481565b60008060149054906101000a900460ff16905090565b6000600460008373ffffffffffffffffffffffffffffffffffffffff1673ffffffffffffffffffffffffffffffffffffffff168152602001908152602001600020600101549050919050565b6000600254905090565b600080fd5b600073ffffffffffffffffffffffffffffffffffffffff82169050919050565b6000610ddc82610db1565b9050919050565b610dec81610dd1565b8114610df757600080fd5b50565b600081359050610e0981610de3565b92915050565b600060208284031215610e2557610e24610dac565b5b6000610e3384828501610dfa565b91505092915050565b60008115159050919050565b610e5181610e3c565b82525050565b6000602082019050610e6c6000830184610e48565b92915050565b610e7b81610e3c565b8114610e8657600080fd5b50565b600081359050610e9881610e72565b92915050565b600060208284031215610eb457610eb3610dac565b5b6000610ec284828501610e89565b91505092915050565b6000819050919050565b610ede81610ecb565b8114610ee957600080fd5b50565b600081359050610efb81610ed5565b92915050565b600060208284031215610f1757610f16610dac565b5b6000610f2584828501610eec565b91505092915050565b610f3781610dd1565b82525050565b600081519050919050565b600082825260208201905092915050565b60005b83811015610f77578082015181840152602081019050610f5c565b83811115610f86576000848401525b50505050565b6000601f19601f8301169050919050565b6000610fa882610f3d565b610fb28185610f48565b9350610fc2818560208601610f59565b610fcb81610f8c565b840191505092915050565b6000819050919050565b610fe981610fd6565b82525050565b600060ff82169050919050565b61100581610fef565b82525050565b600060c0820190506110206000830189610f2e565b81810360208301526110328188610f9d565b90506110416040830187610fe0565b81810360608301526110538186610f9d565b905081810360808301526110678185610f9d565b905061107660a0830184610ffc565b979650505050505050565b61108a81610fd6565b811461109557600080fd5b50565b6000813590506110a781611081565b92915050565b6000602082840312156110c3576110c2610dac565b5b60006110d184828501611098565b91505092915050565b6110e381610ecb565b82525050565b60006020820190506110fe60008301846110da565b92915050565b6000806040838503121561111b5761111a610dac565b5b600061112985828601610dfa565b925050602061113a85828601611098565b9150509250929050565b6000806040838503121561115b5761115a610dac565b5b600061116985828601610eec565b925050602061117a85828601611098565b9150509250929050565b60006060820190506111996000830186610f2e565b6111a66020830185610fe0565b6111b36040830184610e48565b949350505050565b60006020820190506111d06000830184610fe0565b92915050565b7f436f6e74726163742069732063757272656e746c79206e6f74206f706572617460008201527f696f6e616c000000000000000000000000000000000000000000000000000000602082015250565b6000611232602583610f48565b915061123d826111d6565b604082019050919050565b6000602082019050818103600083015261126181611225565b9050919050565b7f4169726c696e65206973206e6f74207265676973746572656400000000000000600082015250565b600061129e601983610f48565b91506112a982611268565b602082019050919050565b600060208201905081810360008301526112cd81611291565b9050919050565b7f4e487b7100000000000000000000000000000000000000000000000000000000600052601160045260246000fd5b600061130e82610fd6565b915061131983610fd6565b9250827fffffffffffffffffffffffffffffffffffffffffffffffffffffffffffffffff0382111561134e5761134d6112d4565b5b828201905092915050565b7f43616c6c6572206973206e6f7420636f6e7472616374206f776e657200000000600082015250565b600061138f601c83610f48565b915061139a82611359565b602082019050919050565b600060208201905081810360008301526113be81611382565b9050919050565b7f4e487b7100000000000000000000000000000000000000000000000000000000600052602260045260246000fd5b6000600282049050600182168061140c57607f821691505b602082108114156114205761141f6113c5565b5b50919050565b7f43616c6c696e6720636f6e7472616374206973206e6f7420617574686f72697a60008201527f656420746f206163636573732064617461000000000000000000000000000000602082015250565b6000611482603183610f48565b915061148d82611426565b604082019050919050565b600060208201905081810360008301526114b181611475565b9050919050565b7f4169726c696e6520697320616c72656164792072656769737465726564000000600082015250565b60006114ee601d83610f48565b91506114f9826114b8565b602082019050919050565b6000602082019050818103600083015261151d816114e1565b905091905056fea2646970667358221220d6bc8dafab433b8584b3c329e9b6185ef1dd51951b28619a1e8ed88548ec3c8164736f6c634300080a0033",
  "immutableReferences": {},
  "source": "// SPDX-License-Identifier: MIT\npragma solidity ^0.8.9; // ^0.8.0 ensures SafeMath builtin\n\nimport \"../node_modules/@openzeppelin/contracts/utils/math/SafeMath.sol\";\n\ncontract FlightSuretyData {\n    using SafeMath for uint256;\n\n    /********************************************************************************************/\n    /*                                       DATA VARIABLES                                     */\n    /********************************************************************************************/\n\n    address private contractOwner; // Account used to deploy contract\n    bool private operational = true; // Blocks all state changes throughout the contract if false\n\n    mapping(address => bool) private authorizedCallers; // App contract addresses authorized to call this data contract\n\n    // Airlines\n    struct Airline {\n        bool isRegistered;\n        uint256 funds;\n    }\n    uint256 registeredAirlinesCount = 1;\n    uint256 fundedAirlinesCount = 1;\n    mapping(address => Airline) private airlines;\n\n    // Flights\n    struct Flight {\n        address airline;\n        string flightNumber;\n        uint256 departureTime;\n        string departureLoc;\n        string arrivalLoc;\n        uint8 statusCode;\n    }\n    mapping(bytes32 => Flight) public flights;\n    bytes32[] public registeredFlights;\n\n    // Insurance\n    struct FlightInsurance {\n        address passenger;\n        uint256 amount;\n        bool isRefunded;\n    }\n\n    // Flight Insurance\n    mapping(bytes32 => FlightInsurance[]) public flightInsurances;\n\n    // Passenger Insurance Claims\n    mapping(address => uint256) public claims;\n\n    /********************************************************************************************/\n    /*                                       EVENT DEFINITIONS                                  */\n    /********************************************************************************************/\n\n    /**\n     * @dev Constructor\n     *      The deploying account becomes contractOwner\n     */\n    constructor(address airlineAddress) {\n        contractOwner = msg.sender;\n        airlines[airlineAddress] = Airline(true, 0);\n    }\n\n    /********************************************************************************************/\n    /*                                       FUNCTION MODIFIERS                                 */\n    /********************************************************************************************/\n\n    // Modifiers help avoid duplication of code. They are typically used to validate something\n    // before a function is allowed to be executed.\n\n    /**\n     * @dev Modifier that requires the \"operational\" boolean variable to be \"true\"\n     *      This is used on all state changing functions to pause the contract in\n     *      the event there is an issue that needs to be fixed\n     */\n    modifier requireIsOperational() {\n        require(operational, \"Contract is currently not operational\");\n        _; // All modifiers require an \"_\" which indicates where the function body will be added\n    }\n\n    /**\n     * @dev Modifier that requires the \"ContractOwner\" account to be the function caller\n     */\n    modifier requireContractOwner() {\n        require(msg.sender == contractOwner, \"Caller is not contract owner\");\n        _;\n    }\n\n    // airline modifiers\n    modifier requireNotAlreadyRegistered(address airline) {\n        require(\n            !airlines[airline].isRegistered,\n            \"Airline is already registered\"\n        );\n        _;\n    }\n\n    modifier requireRegistered(address airline) {\n        require(airlines[airline].isRegistered, \"Airline is not registered\");\n        _;\n    }\n\n    modifier requireFunded(address airline) {\n        require(\n            airlines[airline].funds >= 10 ether,\n            \"Airline is not sufficiently contributed to the funds\"\n        );\n        _;\n    }\n\n    modifier requireAuthorizedCaller() {\n        require(\n            authorizedCallers[msg.sender],\n            \"Calling contract is not authorized to access data\"\n        );\n        _;\n    }\n\n    /********************************************************************************************/\n    /*                                       UTILITY FUNCTIONS                                  */\n    /********************************************************************************************/\n\n    /**\n     * @dev Get operating status of contract\n     *\n     * @return A bool that is the current operating status\n     */\n    function isOperational() public view returns (bool) {\n        return operational;\n    }\n\n    /**\n     * @dev Sets contract operations on/off\n     *\n     * When operational mode is disabled, all write transactions except for this one will fail\n     */\n    function setOperatingStatus(bool mode) external requireContractOwner {\n        operational = mode;\n    }\n\n    /********************************************************************************************/\n    /*                                     SMART CONTRACT FUNCTIONS                             */\n    /********************************************************************************************/\n\n    function authorizeCaller(address contractAddress)\n        external\n        requireContractOwner\n    {\n        authorizedCallers[contractAddress] = true;\n    }\n\n    function deauthorizeContract(address contractAddress)\n        external\n        requireContractOwner\n    {\n        delete authorizedCallers[contractAddress];\n    }\n\n    /**\n     * @dev Add an airline to the registration queue\n     *      Can only be called from FlightSuretyApp contract\n     *\n     */\n    function registerAirline(address airline)\n        external\n        requireIsOperational\n        requireAuthorizedCaller\n        requireNotAlreadyRegistered(airline)\n    {\n        airlines[airline] = Airline(true, 0);\n        registeredAirlinesCount += 1;\n    }\n\n    function isAirlineRegistered(address airline) external view returns (bool) {\n        return airlines[airline].isRegistered;\n    }\n\n    function isFunded(address airline) external view returns (bool) {\n        uint256 funds = airlines[airline].funds;\n        return funds >= (10 ether);\n    }\n\n    function getFunds(address airline)\n        external\n        view\n        returns (uint256 amount)\n    {\n        return airlines[airline].funds;\n    }\n\n    function getRegisteredAirlinesCount() external view returns (uint256) {\n        return registeredAirlinesCount;\n    }\n\n    /**\n     * @dev Buy insurance for a flight\n     *\n     */\n    function buy() external payable {}\n\n    /**\n     *  @dev Credits payouts to insurees\n     */\n    function creditInsurees() external pure {}\n\n    /**\n     *  @dev Transfers eligible payout funds to insuree\n     *\n     */\n    function pay() external pure {}\n\n    /**\n     * @dev Initial funding for the insurance. Unless there are too many delayed flights\n     *      resulting in insurance payouts, the contract should be self-sustaining\n     *\n     */\n    function fund(address airline, uint256 amount)\n        public\n        payable\n        requireIsOperational\n        requireRegistered(airline)\n    {\n        airlines[airline].funds += amount;\n    }\n\n    function getFlightKey(\n        address airline,\n        string memory flight,\n        uint256 timestamp\n    ) internal pure returns (bytes32) {\n        return keccak256(abi.encodePacked(airline, flight, timestamp));\n    }\n\n    /**\n     * @dev Fallback function for funding smart contract.\n     *\n     */\n    fallback() external payable {\n        fund(msg.sender, msg.value);\n    }\n\n    receive() external payable {\n        // custom function code\n    }\n}\n",
  "sourcePath": "C:\\Users\\User\\blockchain\\FlightSurety\\contracts\\FlightSuretyData.sol",
  "compiler": {
    "name": "solc",
    "version": "0.8.10+commit.fc410830.Emscripten.clang"
  },
  "schemaVersion": "3.4.3",
  "updatedAt": "2021-11-15T15:28:53.286Z",
  "networkType": "ethereum",
  "devdoc": {
    "kind": "dev",
    "methods": {
      "buy()": {
        "details": "Buy insurance for a flight"
      },
      "constructor": {
        "details": "Constructor      The deploying account becomes contractOwner"
      },
      "creditInsurees()": {
        "details": "Credits payouts to insurees"
      },
      "fund(address,uint256)": {
        "details": "Initial funding for the insurance. Unless there are too many delayed flights      resulting in insurance payouts, the contract should be self-sustaining"
      },
      "isOperational()": {
        "details": "Get operating status of contract",
        "returns": {
          "_0": "A bool that is the current operating status"
        }
      },
      "pay()": {
        "details": "Transfers eligible payout funds to insuree"
      },
      "registerAirline(address)": {
        "details": "Add an airline to the registration queue      Can only be called from FlightSuretyApp contract"
      },
      "setOperatingStatus(bool)": {
        "details": "Sets contract operations on/off When operational mode is disabled, all write transactions except for this one will fail"
      }
    },
    "version": 1
  },
  "userdoc": {
    "kind": "user",
    "methods": {},
    "version": 1
  }
}