{
  "contractName": "FlightSuretyApp",
  "abi": [
    {
      "inputs": [
        {
          "internalType": "address payable",
          "name": "flightSuretyDataAddress",
          "type": "address"
        }
      ],
      "stateMutability": "nonpayable",
      "type": "constructor"
    },
    {
      "anonymous": false,
      "inputs": [
        {
          "indexed": false,
          "internalType": "address",
          "name": "airline",
          "type": "address"
        },
        {
          "indexed": false,
          "internalType": "uint256",
          "name": "funds",
          "type": "uint256"
        }
      ],
      "name": "AirlineFunded",
      "type": "event"
    },
    {
      "anonymous": false,
      "inputs": [
        {
          "indexed": false,
          "internalType": "address",
          "name": "airline",
          "type": "address"
        },
        {
          "indexed": false,
          "internalType": "uint256",
          "name": "count",
          "type": "uint256"
        }
      ],
      "name": "AirlineRegistered",
      "type": "event"
    },
    {
      "anonymous": false,
      "inputs": [
        {
          "indexed": false,
          "internalType": "address",
          "name": "airline",
          "type": "address"
        },
        {
          "indexed": false,
          "internalType": "string",
          "name": "flight",
          "type": "string"
        },
        {
          "indexed": false,
          "internalType": "uint256",
          "name": "timestamp",
          "type": "uint256"
        },
        {
          "indexed": false,
          "internalType": "uint8",
          "name": "status",
          "type": "uint8"
        }
      ],
      "name": "FlightStatusInfo",
      "type": "event"
    },
    {
      "anonymous": false,
      "inputs": [
        {
          "indexed": false,
          "internalType": "address",
          "name": "airline",
          "type": "address"
        },
        {
          "indexed": false,
          "internalType": "string",
          "name": "flight",
          "type": "string"
        },
        {
          "indexed": false,
          "internalType": "uint256",
          "name": "timestamp",
          "type": "uint256"
        },
        {
          "indexed": false,
          "internalType": "uint8",
          "name": "status",
          "type": "uint8"
        }
      ],
      "name": "OracleReport",
      "type": "event"
    },
    {
      "anonymous": false,
      "inputs": [
        {
          "indexed": false,
          "internalType": "uint8",
          "name": "index",
          "type": "uint8"
        },
        {
          "indexed": false,
          "internalType": "address",
          "name": "airline",
          "type": "address"
        },
        {
          "indexed": false,
          "internalType": "string",
          "name": "flight",
          "type": "string"
        },
        {
          "indexed": false,
          "internalType": "uint256",
          "name": "timestamp",
          "type": "uint256"
        }
      ],
      "name": "OracleRequest",
      "type": "event"
    },
    {
      "inputs": [],
      "name": "REGISTRATION_FEE",
      "outputs": [
        {
          "internalType": "uint256",
          "name": "",
          "type": "uint256"
        }
      ],
      "stateMutability": "view",
      "type": "function",
      "constant": true
    },
    {
      "inputs": [
        {
          "internalType": "address",
          "name": "",
          "type": "address"
        },
        {
          "internalType": "uint256",
          "name": "",
          "type": "uint256"
        }
      ],
      "name": "airlinesForRegistration",
      "outputs": [
        {
          "internalType": "address",
          "name": "",
          "type": "address"
        }
      ],
      "stateMutability": "view",
      "type": "function",
      "constant": true
    },
    {
      "inputs": [],
      "name": "isOperational",
      "outputs": [
        {
          "internalType": "bool",
          "name": "",
          "type": "bool"
        }
      ],
      "stateMutability": "view",
      "type": "function",
      "constant": true
    },
    {
      "inputs": [
        {
          "internalType": "address",
          "name": "airline",
          "type": "address"
        }
      ],
      "name": "isAirline",
      "outputs": [
        {
          "internalType": "bool",
          "name": "",
          "type": "bool"
        }
      ],
      "stateMutability": "view",
      "type": "function",
      "constant": true
    },
    {
      "inputs": [
        {
          "internalType": "address",
          "name": "airline",
          "type": "address"
        }
      ],
      "name": "registerAirline",
      "outputs": [
        {
          "internalType": "bool",
          "name": "success",
          "type": "bool"
        },
        {
          "internalType": "uint256",
          "name": "votes",
          "type": "uint256"
        }
      ],
      "stateMutability": "nonpayable",
      "type": "function"
    },
    {
      "inputs": [
        {
          "internalType": "uint256",
          "name": "amount",
          "type": "uint256"
        }
      ],
      "name": "fundAirline",
      "outputs": [],
      "stateMutability": "nonpayable",
      "type": "function"
    },
    {
      "inputs": [
        {
          "internalType": "address",
          "name": "airline",
          "type": "address"
        }
      ],
      "name": "isFunded",
      "outputs": [
        {
          "internalType": "bool",
          "name": "",
          "type": "bool"
        }
      ],
      "stateMutability": "view",
      "type": "function",
      "constant": true
    },
    {
      "inputs": [],
      "name": "registerFlight",
      "outputs": [],
      "stateMutability": "pure",
      "type": "function",
      "constant": true
    },
    {
      "inputs": [
        {
          "internalType": "address",
          "name": "airline",
          "type": "address"
        },
        {
          "internalType": "string",
          "name": "flight",
          "type": "string"
        },
        {
          "internalType": "uint256",
          "name": "timestamp",
          "type": "uint256"
        }
      ],
      "name": "fetchFlightStatus",
      "outputs": [],
      "stateMutability": "nonpayable",
      "type": "function"
    },
    {
      "inputs": [],
      "name": "registerOracle",
      "outputs": [],
      "stateMutability": "payable",
      "type": "function",
      "payable": true
    },
    {
      "inputs": [],
      "name": "getMyIndexes",
      "outputs": [
        {
          "internalType": "uint8[3]",
          "name": "",
          "type": "uint8[3]"
        }
      ],
      "stateMutability": "view",
      "type": "function",
      "constant": true
    },
    {
      "inputs": [
        {
          "internalType": "uint8",
          "name": "index",
          "type": "uint8"
        },
        {
          "internalType": "address",
          "name": "airline",
          "type": "address"
        },
        {
          "internalType": "string",
          "name": "flight",
          "type": "string"
        },
        {
          "internalType": "uint256",
          "name": "timestamp",
          "type": "uint256"
        },
        {
          "internalType": "uint8",
          "name": "statusCode",
          "type": "uint8"
        }
      ],
      "name": "submitOracleResponse",
      "outputs": [],
      "stateMutability": "nonpayable",
      "type": "function"
    }
  ],
  "bytecode": "0x60806040526000600360146101000a81548160ff021916908360ff1602179055503480156200002d57600080fd5b5060405162002a9f38038062002a9f833981810160405281019062000053919062000145565b336000806101000a81548173ffffffffffffffffffffffffffffffffffffffff021916908373ffffffffffffffffffffffffffffffffffffffff16021790555080600360006101000a81548173ffffffffffffffffffffffffffffffffffffffff021916908373ffffffffffffffffffffffffffffffffffffffff1602179055505062000177565b600080fd5b600073ffffffffffffffffffffffffffffffffffffffff82169050919050565b60006200010d82620000e0565b9050919050565b6200011f8162000100565b81146200012b57600080fd5b50565b6000815190506200013f8162000114565b92915050565b6000602082840312156200015e576200015d620000db565b5b60006200016e848285016200012e565b91505092915050565b61291880620001876000396000f3fe6080604052600436106100a75760003560e01c8063ae6f17e011610064578063ae6f17e0146101af578063bdfd9877146101c6578063c10f270014610204578063c829e3ef1461022d578063cd905dff1461026a578063f83f11c014610295576100a7565b80630e248a11146100ac578063339d2590146100e95780635689b249146100f35780635f1cc0e61461013057806364b4f7511461015b5780637ae64f9b14610186575b600080fd5b3480156100b857600080fd5b506100d360048036038101906100ce9190611b29565b6102be565b6040516100e09190611b71565b60405180910390f35b6100f1610363565b005b3480156100ff57600080fd5b5061011a60048036038101906101159190611b29565b610450565b6040516101279190611b71565b60405180910390f35b34801561013c57600080fd5b506101456104f5565b6040516101529190611c44565b60405180910390f35b34801561016757600080fd5b50610170610635565b60405161017d9190611c78565b60405180910390f35b34801561019257600080fd5b506101ad60048036038101906101a89190611cbf565b610641565b005b3480156101bb57600080fd5b506101c4610849565b005b3480156101d257600080fd5b506101ed60048036038101906101e89190611b29565b61084b565b6040516101fb929190611cec565b60405180910390f35b34801561021057600080fd5b5061022b60048036038101906102269190611e87565b611194565b005b34801561023957600080fd5b50610254600480360381019061024f9190611f1e565b611523565b6040516102619190611f6d565b60405180910390f35b34801561027657600080fd5b5061027f611571565b60405161028c9190611b71565b60405180910390f35b3480156102a157600080fd5b506102bc60048036038101906102b79190611f88565b611609565b005b6000600360009054906101000a900473ffffffffffffffffffffffffffffffffffffffff1673ffffffffffffffffffffffffffffffffffffffff1663010c5c97836040518263ffffffff1660e01b815260040161031b9190611f6d565b602060405180830381865afa158015610338573d6000803e3d6000fd5b505050506040513d601f19601f8201168201806040525081019061035c9190612023565b9050919050565b670de0b6b3a76400003410156103ae576040517f08c379a00000000000000000000000000000000000000000000000000000000081526004016103a5906120ad565b60405180910390fd5b60006103b93361170f565b9050604051806040016040528060011515815260200182815250600460003373ffffffffffffffffffffffffffffffffffffffff1673ffffffffffffffffffffffffffffffffffffffff16815260200190815260200160002060008201518160000160006101000a81548160ff0219169083151502179055506020820151816001019060036104499291906119de565b5090505050565b6000600360009054906101000a900473ffffffffffffffffffffffffffffffffffffffff1673ffffffffffffffffffffffffffffffffffffffff16635689b249836040518263ffffffff1660e01b81526004016104ad9190611f6d565b602060405180830381865afa1580156104ca573d6000803e3d6000fd5b505050506040513d601f19601f820116820180604052508101906104ee9190612023565b9050919050565b6104fd611a78565b600460003373ffffffffffffffffffffffffffffffffffffffff1673ffffffffffffffffffffffffffffffffffffffff16815260200190815260200160002060000160009054906101000a900460ff1661058c576040517f08c379a000000000000000000000000000000000000000000000000000000000815260040161058390612119565b60405180910390fd5b600460003373ffffffffffffffffffffffffffffffffffffffff1673ffffffffffffffffffffffffffffffffffffffff16815260200190815260200160002060010160038060200260405190810160405280929190826003801561062b576020028201916000905b82829054906101000a900460ff1660ff16815260200190600101906020826000010492830192600103820291508084116105f45790505b5050505050905090565b670de0b6b3a764000081565b600360009054906101000a900473ffffffffffffffffffffffffffffffffffffffff1673ffffffffffffffffffffffffffffffffffffffff16637b1837de33836040518363ffffffff1660e01b815260040161069e929190612139565b600060405180830381600087803b1580156106b857600080fd5b505af11580156106cc573d6000803e3d6000fd5b50505050600360009054906101000a900473ffffffffffffffffffffffffffffffffffffffff1673ffffffffffffffffffffffffffffffffffffffff16635689b249336040518263ffffffff1660e01b815260040161072b9190611f6d565b602060405180830381865afa158015610748573d6000803e3d6000fd5b505050506040513d601f19601f8201168201806040525081019061076c9190612023565b15610846577fe3e3c2f23f7445131259937f93b9ed0c075fe06c9d702be2d7ac549d0ec5fc3233600360009054906101000a900473ffffffffffffffffffffffffffffffffffffffff1673ffffffffffffffffffffffffffffffffffffffff1663decebbce336040518263ffffffff1660e01b81526004016107ee9190611f6d565b602060405180830381865afa15801561080b573d6000803e3d6000fd5b505050506040513d601f19601f8201168201806040525081019061082f9190612177565b60405161083d929190612139565b60405180910390a15b50565b565b600080600161088f576040517f08c379a000000000000000000000000000000000000000000000000000000000815260040161088690612216565b60405180910390fd5b82600360009054906101000a900473ffffffffffffffffffffffffffffffffffffffff1673ffffffffffffffffffffffffffffffffffffffff1663010c5c97826040518263ffffffff1660e01b81526004016108eb9190611f6d565b602060405180830381865afa158015610908573d6000803e3d6000fd5b505050506040513d601f19601f8201168201806040525081019061092c9190612023565b1561096c576040517f08c379a000000000000000000000000000000000000000000000000000000000815260040161096390612282565b60405180910390fd5b6004600360009054906101000a900473ffffffffffffffffffffffffffffffffffffffff1673ffffffffffffffffffffffffffffffffffffffff1663f77890ea6040518163ffffffff1660e01b8152600401602060405180830381865afa1580156109db573d6000803e3d6000fd5b505050506040513d601f19601f820116820180604052508101906109ff9190612177565b1015610c0a57600360009054906101000a900473ffffffffffffffffffffffffffffffffffffffff1673ffffffffffffffffffffffffffffffffffffffff1663bdfd9877856040518263ffffffff1660e01b8152600401610a609190611f6d565b600060405180830381600087803b158015610a7a57600080fd5b505af1158015610a8e573d6000803e3d6000fd5b50505050600360009054906101000a900473ffffffffffffffffffffffffffffffffffffffff1673ffffffffffffffffffffffffffffffffffffffff1663010c5c97856040518263ffffffff1660e01b8152600401610aed9190611f6d565b602060405180830381865afa158015610b0a573d6000803e3d6000fd5b505050506040513d601f19601f82011682018060405250810190610b2e9190612023565b15610bfd577f4e89f34ef1586aa7cb3ba0fb413cd5678085f191a4442e087cebf2f076f3b0a284600360009054906101000a900473ffffffffffffffffffffffffffffffffffffffff1673ffffffffffffffffffffffffffffffffffffffff1663f77890ea6040518163ffffffff1660e01b8152600401602060405180830381865afa158015610bc2573d6000803e3d6000fd5b505050506040513d601f19601f82011682018060405250810190610be69190612177565b604051610bf4929190612139565b60405180910390a15b600160219250925061118e565b6000805b600160008773ffffffffffffffffffffffffffffffffffffffff1673ffffffffffffffffffffffffffffffffffffffff16815260200190815260200160002080549050811015610d23573373ffffffffffffffffffffffffffffffffffffffff16600160008873ffffffffffffffffffffffffffffffffffffffff1673ffffffffffffffffffffffffffffffffffffffff1681526020019081526020016000208281548110610cc057610cbf6122a2565b5b9060005260206000200160009054906101000a900473ffffffffffffffffffffffffffffffffffffffff1673ffffffffffffffffffffffffffffffffffffffff161415610d105760019150610d23565b8080610d1b90612300565b915050610c0e565b508015610d65576040517f08c379a0000000000000000000000000000000000000000000000000000000008152600401610d5c906123bb565b60405180910390fd5b600160008673ffffffffffffffffffffffffffffffffffffffff1673ffffffffffffffffffffffffffffffffffffffff168152602001908152602001600020339080600181540180825580915050600190039060005260206000200160009091909190916101000a81548173ffffffffffffffffffffffffffffffffffffffff021916908373ffffffffffffffffffffffffffffffffffffffff1602179055506032610ef8600360009054906101000a900473ffffffffffffffffffffffffffffffffffffffff1673ffffffffffffffffffffffffffffffffffffffff1663f77890ea6040518163ffffffff1660e01b8152600401602060405180830381865afa158015610e77573d6000803e3d6000fd5b505050506040513d601f19601f82011682018060405250810190610e9b9190612177565b6064600160008a73ffffffffffffffffffffffffffffffffffffffff1673ffffffffffffffffffffffffffffffffffffffff16815260200190815260200160002080549050610eea91906123db565b6118f690919063ffffffff16565b1061114357600360009054906101000a900473ffffffffffffffffffffffffffffffffffffffff1673ffffffffffffffffffffffffffffffffffffffff1663bdfd9877866040518263ffffffff1660e01b8152600401610f589190611f6d565b600060405180830381600087803b158015610f7257600080fd5b505af1158015610f86573d6000803e3d6000fd5b50505050600360009054906101000a900473ffffffffffffffffffffffffffffffffffffffff1673ffffffffffffffffffffffffffffffffffffffff1663010c5c97866040518263ffffffff1660e01b8152600401610fe59190611f6d565b602060405180830381865afa158015611002573d6000803e3d6000fd5b505050506040513d601f19601f820116820180604052508101906110269190612023565b156110f5577f4e89f34ef1586aa7cb3ba0fb413cd5678085f191a4442e087cebf2f076f3b0a285600360009054906101000a900473ffffffffffffffffffffffffffffffffffffffff1673ffffffffffffffffffffffffffffffffffffffff1663f77890ea6040518163ffffffff1660e01b8152600401602060405180830381865afa1580156110ba573d6000803e3d6000fd5b505050506040513d601f19601f820116820180604052508101906110de9190612177565b6040516110ec929190612139565b60405180910390a15b60018060008773ffffffffffffffffffffffffffffffffffffffff1673ffffffffffffffffffffffffffffffffffffffff16815260200190815260200160002080549050935093505061118e565b6000600160008773ffffffffffffffffffffffffffffffffffffffff1673ffffffffffffffffffffffffffffffffffffffff1681526020019081526020016000208054905093509350505b50915091565b8460ff16600460003373ffffffffffffffffffffffffffffffffffffffff1673ffffffffffffffffffffffffffffffffffffffff1681526020019081526020016000206001016000600381106111ed576111ec6122a2565b5b602091828204019190069054906101000a900460ff1660ff16148061128157508460ff16600460003373ffffffffffffffffffffffffffffffffffffffff1673ffffffffffffffffffffffffffffffffffffffff168152602001908152602001600020600101600160038110611266576112656122a2565b5b602091828204019190069054906101000a900460ff1660ff16145b806112fb57508460ff16600460003373ffffffffffffffffffffffffffffffffffffffff1673ffffffffffffffffffffffffffffffffffffffff1681526020019081526020016000206001016002600381106112e0576112df6122a2565b5b602091828204019190069054906101000a900460ff1660ff16145b61133a576040517f08c379a0000000000000000000000000000000000000000000000000000000008152600401611331906124a7565b60405180910390fd5b60008585858560405160200161135394939291906125e0565b6040516020818303038152906040528051906020012090506005600082815260200190815260200160002060000160149054906101000a900460ff166113ce576040517f08c379a00000000000000000000000000000000000000000000000000000000081526004016113c59061269c565b60405180910390fd5b6005600082815260200190815260200160002060010160008360ff1660ff168152602001908152602001600020339080600181540180825580915050600190039060005260206000200160009091909190916101000a81548173ffffffffffffffffffffffffffffffffffffffff021916908373ffffffffffffffffffffffffffffffffffffffff1602179055507f43c853095c2752648493c88b4baac4d580d2594ffb00c6f1d4242d844514f783858585856040516114919493929190612704565b60405180910390a160036005600083815260200190815260200160002060010160008460ff1660ff168152602001908152602001600020805490501061151b577fe23f5229de535c091e3b7bec2665f5d698192d3b31393066e8987b7a05076b6c858585856040516115069493929190612704565b60405180910390a161151a8585858561190c565b5b505050505050565b6001602052816000526040600020818154811061153f57600080fd5b906000526020600020016000915091509054906101000a900473ffffffffffffffffffffffffffffffffffffffff1681565b6000600360009054906101000a900473ffffffffffffffffffffffffffffffffffffffff1673ffffffffffffffffffffffffffffffffffffffff1663cd905dff6040518163ffffffff1660e01b8152600401602060405180830381865afa1580156115e0573d6000803e3d6000fd5b505050506040513d601f19601f820116820180604052508101906116049190612023565b905090565b600061161433611912565b905060008185858560405160200161162f94939291906125e0565b604051602081830303815290604052805190602001209050336005600083815260200190815260200160002060000160006101000a81548173ffffffffffffffffffffffffffffffffffffffff021916908373ffffffffffffffffffffffffffffffffffffffff16021790555060016005600083815260200190815260200160002060000160146101000a81548160ff0219169083151502179055507f3ed01f2c3fc24c6b329d931e35b03e390d23497d22b3f90e15b600343e93df11828686866040516117009493929190612750565b60405180910390a15050505050565b611717611a78565b61171f611a78565b61172883611912565b8160006003811061173c5761173b6122a2565b5b602002019060ff16908160ff168152505080600060038110611761576117606122a2565b5b60200201518160016003811061177a576117796122a2565b5b602002019060ff16908160ff16815250505b806000600381106117a05761179f6122a2565b5b602002015160ff16816001600381106117bc576117bb6122a2565b5b602002015160ff1614156117fd576117d383611912565b816001600381106117e7576117e66122a2565b5b602002019060ff16908160ff168152505061178c565b80600160038110611811576118106122a2565b5b60200201518160026003811061182a576118296122a2565b5b602002019060ff16908160ff16815250505b806000600381106118505761184f6122a2565b5b602002015160ff168160026003811061186c5761186b6122a2565b5b602002015160ff1614806118b557508060016003811061188f5761188e6122a2565b5b602002015160ff16816002600381106118ab576118aa6122a2565b5b602002015160ff16145b156118ed576118c383611912565b816002600381106118d7576118d66122a2565b5b602002019060ff16908160ff168152505061183c565b80915050919050565b6000818361190491906127cb565b905092915050565b50505050565b600080600a905060008160ff166003601481819054906101000a900460ff168092919061193e906127fc565b91906101000a81548160ff021916908360ff16021790555060ff16436119649190612826565b4085604051602001611977929190612885565b6040516020818303038152906040528051906020012060001c61199a91906128b1565b905060fa600360149054906101000a900460ff1660ff1611156119d4576000600360146101000a81548160ff021916908360ff1602179055505b8092505050919050565b826003601f01602090048101928215611a675791602002820160005b83821115611a3857835183826101000a81548160ff021916908360ff16021790555092602001926001016020816000010492830192600103026119fa565b8015611a655782816101000a81549060ff0219169055600101602081600001049283019260010302611a38565b505b509050611a749190611a9a565b5090565b6040518060600160405280600390602082028036833780820191505090505090565b5b80821115611ab3576000816000905550600101611a9b565b5090565b6000604051905090565b600080fd5b600080fd5b600073ffffffffffffffffffffffffffffffffffffffff82169050919050565b6000611af682611acb565b9050919050565b611b0681611aeb565b8114611b1157600080fd5b50565b600081359050611b2381611afd565b92915050565b600060208284031215611b3f57611b3e611ac1565b5b6000611b4d84828501611b14565b91505092915050565b60008115159050919050565b611b6b81611b56565b82525050565b6000602082019050611b866000830184611b62565b92915050565b600060039050919050565b600081905092915050565b6000819050919050565b600060ff82169050919050565b611bc281611bac565b82525050565b6000611bd48383611bb9565b60208301905092915050565b6000602082019050919050565b611bf681611b8c565b611c008184611b97565b9250611c0b82611ba2565b8060005b83811015611c3c578151611c238782611bc8565b9650611c2e83611be0565b925050600181019050611c0f565b505050505050565b6000606082019050611c596000830184611bed565b92915050565b6000819050919050565b611c7281611c5f565b82525050565b6000602082019050611c8d6000830184611c69565b92915050565b611c9c81611c5f565b8114611ca757600080fd5b50565b600081359050611cb981611c93565b92915050565b600060208284031215611cd557611cd4611ac1565b5b6000611ce384828501611caa565b91505092915050565b6000604082019050611d016000830185611b62565b611d0e6020830184611c69565b9392505050565b611d1e81611bac565b8114611d2957600080fd5b50565b600081359050611d3b81611d15565b92915050565b600080fd5b600080fd5b6000601f19601f8301169050919050565b7f4e487b7100000000000000000000000000000000000000000000000000000000600052604160045260246000fd5b611d9482611d4b565b810181811067ffffffffffffffff82111715611db357611db2611d5c565b5b80604052505050565b6000611dc6611ab7565b9050611dd28282611d8b565b919050565b600067ffffffffffffffff821115611df257611df1611d5c565b5b611dfb82611d4b565b9050602081019050919050565b82818337600083830152505050565b6000611e2a611e2584611dd7565b611dbc565b905082815260208101848484011115611e4657611e45611d46565b5b611e51848285611e08565b509392505050565b600082601f830112611e6e57611e6d611d41565b5b8135611e7e848260208601611e17565b91505092915050565b600080600080600060a08688031215611ea357611ea2611ac1565b5b6000611eb188828901611d2c565b9550506020611ec288828901611b14565b945050604086013567ffffffffffffffff811115611ee357611ee2611ac6565b5b611eef88828901611e59565b9350506060611f0088828901611caa565b9250506080611f1188828901611d2c565b9150509295509295909350565b60008060408385031215611f3557611f34611ac1565b5b6000611f4385828601611b14565b9250506020611f5485828601611caa565b9150509250929050565b611f6781611aeb565b82525050565b6000602082019050611f826000830184611f5e565b92915050565b600080600060608486031215611fa157611fa0611ac1565b5b6000611faf86828701611b14565b935050602084013567ffffffffffffffff811115611fd057611fcf611ac6565b5b611fdc86828701611e59565b9250506040611fed86828701611caa565b9150509250925092565b61200081611b56565b811461200b57600080fd5b50565b60008151905061201d81611ff7565b92915050565b60006020828403121561203957612038611ac1565b5b60006120478482850161200e565b91505092915050565b600082825260208201905092915050565b7f526567697374726174696f6e2066656520697320726571756972656400000000600082015250565b6000612097601c83612050565b91506120a282612061565b602082019050919050565b600060208201905081810360008301526120c68161208a565b9050919050565b7f4e6f74207265676973746572656420617320616e206f7261636c650000000000600082015250565b6000612103601b83612050565b915061210e826120cd565b602082019050919050565b60006020820190508181036000830152612132816120f6565b9050919050565b600060408201905061214e6000830185611f5e565b61215b6020830184611c69565b9392505050565b60008151905061217181611c93565b92915050565b60006020828403121561218d5761218c611ac1565b5b600061219b84828501612162565b91505092915050565b7f436f6e74726163742069732063757272656e746c79206e6f74206f706572617460008201527f696f6e616c000000000000000000000000000000000000000000000000000000602082015250565b6000612200602583612050565b915061220b826121a4565b604082019050919050565b6000602082019050818103600083015261222f816121f3565b9050919050565b7f4169726c696e6520697320616c72656164792072656769737465726564000000600082015250565b600061226c601d83612050565b915061227782612236565b602082019050919050565b6000602082019050818103600083015261229b8161225f565b9050919050565b7f4e487b7100000000000000000000000000000000000000000000000000000000600052603260045260246000fd5b7f4e487b7100000000000000000000000000000000000000000000000000000000600052601160045260246000fd5b600061230b82611c5f565b91507fffffffffffffffffffffffffffffffffffffffffffffffffffffffffffffffff82141561233e5761233d6122d1565b5b600182019050919050565b7f4169726c696e652068617320616c7265616479206265656e20766f746564206660008201527f6f72000000000000000000000000000000000000000000000000000000000000602082015250565b60006123a5602283612050565b91506123b082612349565b604082019050919050565b600060208201905081810360008301526123d481612398565b9050919050565b60006123e682611c5f565b91506123f183611c5f565b9250817fffffffffffffffffffffffffffffffffffffffffffffffffffffffffffffffff048311821515161561242a576124296122d1565b5b828202905092915050565b7f496e64657820646f6573206e6f74206d61746368206f7261636c65207265717560008201527f6573740000000000000000000000000000000000000000000000000000000000602082015250565b6000612491602383612050565b915061249c82612435565b604082019050919050565b600060208201905081810360008301526124c081612484565b9050919050565b60008160f81b9050919050565b60006124df826124c7565b9050919050565b6124f76124f282611bac565b6124d4565b82525050565b60008160601b9050919050565b6000612515826124fd565b9050919050565b60006125278261250a565b9050919050565b61253f61253a82611aeb565b61251c565b82525050565b600081519050919050565b600081905092915050565b60005b8381101561257957808201518184015260208101905061255e565b83811115612588576000848401525b50505050565b600061259982612545565b6125a38185612550565b93506125b381856020860161255b565b80840191505092915050565b6000819050919050565b6125da6125d582611c5f565b6125bf565b82525050565b60006125ec82876124e6565b6001820191506125fc828661252e565b60148201915061260c828561258e565b915061261882846125c9565b60208201915081905095945050505050565b7f466c69676874206f722074696d657374616d7020646f206e6f74206d6174636860008201527f206f7261636c6520726571756573740000000000000000000000000000000000602082015250565b6000612686602f83612050565b91506126918261262a565b604082019050919050565b600060208201905081810360008301526126b581612679565b9050919050565b60006126c782612545565b6126d18185612050565b93506126e181856020860161255b565b6126ea81611d4b565b840191505092915050565b6126fe81611bac565b82525050565b60006080820190506127196000830187611f5e565b818103602083015261272b81866126bc565b905061273a6040830185611c69565b61274760608301846126f5565b95945050505050565b600060808201905061276560008301876126f5565b6127726020830186611f5e565b818103604083015261278481856126bc565b90506127936060830184611c69565b95945050505050565b7f4e487b7100000000000000000000000000000000000000000000000000000000600052601260045260246000fd5b60006127d682611c5f565b91506127e183611c5f565b9250826127f1576127f061279c565b5b828204905092915050565b600061280782611bac565b915060ff82141561281b5761281a6122d1565b5b600182019050919050565b600061283182611c5f565b915061283c83611c5f565b92508282101561284f5761284e6122d1565b5b828203905092915050565b6000819050919050565b6000819050919050565b61287f61287a8261285a565b612864565b82525050565b6000612891828561286e565b6020820191506128a1828461252e565b6014820191508190509392505050565b60006128bc82611c5f565b91506128c783611c5f565b9250826128d7576128d661279c565b5b82820690509291505056fea2646970667358221220978ec15868e14de3231ea2b37c317ac5436b00b86586f2ad3e951791a1e8e7c464736f6c634300080a0033",
  "immutableReferences": {},
  "source": "// SPDX-License-Identifier: MIT\npragma solidity ^0.8.9; // ^0.8.0 ensures SafeMath builtin\n\n\n// It's important to avoid vulnerabilities due to numeric overflow bugs\n// OpenZeppelin's SafeMath library, when used correctly, protects agains such bugs\n// More info: https://www.nccgroup.trust/us/about-us/newsroom-and-events/blog/2018/november/smart-contract-insecurity-bad-arithmetic/\n\nimport \"../node_modules/@openzeppelin/contracts/utils/math/SafeMath.sol\";\nimport \"./FlightSuretyData.sol\";\n\n/************************************************** */\n/* FlightSurety Smart Contract                      */\n/************************************************** */\ncontract FlightSuretyApp {\n    using SafeMath for uint256; // Allow SafeMath functions to be called for all uint256 types (similar to \"prototype\" in Javascript)\n\n    /********************************************************************************************/\n    /*                                       DATA VARIABLES                                     */\n    /********************************************************************************************/\n\n    // Flight status codees\n    uint8 private constant STATUS_CODE_UNKNOWN = 0;\n    uint8 private constant STATUS_CODE_ON_TIME = 10;\n    uint8 private constant STATUS_CODE_LATE_AIRLINE = 20;\n    uint8 private constant STATUS_CODE_LATE_WEATHER = 30;\n    uint8 private constant STATUS_CODE_LATE_TECHNICAL = 40;\n    uint8 private constant STATUS_CODE_LATE_OTHER = 50;\n\n    address private contractOwner; // Account used to deploy contract\n\n    // Airlines\n    // airline-to-register to airlines voting; for consensus checking\n    mapping(address => address[]) public airlinesForRegistration;\n\n    // Flights\n    struct Flight {\n        bool isRegistered;\n        uint8 statusCode;\n        uint256 updatedTimestamp;\n        address airline;\n    }\n    mapping(bytes32 => Flight) private flights;\n\n    /********************************************************************************************/\n    /*                                       EVENT DEFINITIONS                                  */\n    /********************************************************************************************/\n\n    event AirlineRegistered(address airline, uint256 count);\n    event AirlineFunded(address airline, uint256 funds);\n\n    /********************************************************************************************/\n    /*                                       FUNCTION MODIFIERS                                 */\n    /********************************************************************************************/\n\n    // Modifiers help avoid duplication of code. They are typically used to validate something\n    // before a function is allowed to be executed.\n\n    /**\n     * @dev Modifier that requires the \"operational\" boolean variable to be \"true\"\n     *      This is used on all state changing functions to pause the contract in\n     *      the event there is an issue that needs to be fixed\n     */\n    modifier requireIsOperational() {\n        // Modify to call data contract's status\n        require(true, \"Contract is currently not operational\");\n        _; // All modifiers require an \"_\" which indicates where the function body will be added\n    }\n\n    /**\n     * @dev Modifier that requires the \"ContractOwner\" account to be the function caller\n     */\n    modifier requireContractOwner() {\n        require(msg.sender == contractOwner, \"Caller is not contract owner\");\n        _;\n    }\n\n    // Reference Flight Surety data contract\n    FlightSuretyData flightSuretyData;\n\n    /********************************************************************************************/\n    /*                                       CONSTRUCTOR                                        */\n    /********************************************************************************************/\n\n    /**\n     * @dev Contract constructor\n     *\n     */\n    constructor(address payable flightSuretyDataAddress) {\n        contractOwner = msg.sender;\n        flightSuretyData = FlightSuretyData(flightSuretyDataAddress);\n    }\n\n    /********************************************************************************************/\n    /*                                       UTILITY FUNCTIONS                                  */\n    /********************************************************************************************/\n\n    function isOperational() public view returns (bool) {\n        return flightSuretyData.isOperational(); // Modify to call data contract's status\n    }\n\n    // airlines\n\n    // airline modifiers\n    modifier requireNotAlreadyRegistered(address airline) {\n        require(\n            !flightSuretyData.isAirlineRegistered(airline),\n            \"Airline is already registered\"\n        );\n        _;\n    }\n\n    // modifier requireFunded(address airline) {\n    //     require(\n    //         flightSuretyData.isFunded(airline),\n    //         \"Airline has not sufficiently contributed to the funds\"\n    //     );\n    //     _;\n    // }\n\n    /********************************************************************************************/\n    /*                                     SMART CONTRACT FUNCTIONS                             */\n    /********************************************************************************************/\n    function isAirline(address airline) external view returns (bool) {\n        return flightSuretyData.isAirlineRegistered(airline);\n    }\n\n    /**\n     * @dev Add an airline to the registration queue\n     *\n     */\n    function registerAirline(address airline)\n        external\n        requireIsOperational\n        requireNotAlreadyRegistered(airline)\n        returns (bool success, uint256 votes)\n    {\n        if (flightSuretyData.getRegisteredAirlinesCount() < 4) {\n            flightSuretyData.registerAirline(airline);\n\n            if (flightSuretyData.isAirlineRegistered(airline)) {\n                emit AirlineRegistered(\n                    airline,\n                    flightSuretyData.getRegisteredAirlinesCount()\n                );\n            }\n\n            return (true, 33);\n        } else {\n            // Check consensus if more than or equal to 4 registered airlines\n\n            // Check if not already voted\n            bool isVoted = false;\n            for (\n                uint256 i = 0;\n                i < airlinesForRegistration[airline].length;\n                i++\n            ) {\n                if (airlinesForRegistration[airline][i] == msg.sender) {\n                    isVoted = true;\n                    break;\n                }\n            }\n            require(!isVoted, \"Airline has already been voted for\");\n\n            airlinesForRegistration[airline].push(msg.sender);\n\n            // Check if enough votes to register airline\n            if (\n                (airlinesForRegistration[airline].length * 100).div(\n                    flightSuretyData.getRegisteredAirlinesCount()\n                ) >= 50\n            ) {\n                flightSuretyData.registerAirline(airline);\n\n                if (flightSuretyData.isAirlineRegistered(airline)) {\n                    emit AirlineRegistered(\n                        airline,\n                        flightSuretyData.getRegisteredAirlinesCount()\n                    );\n                }\n\n                return (true, airlinesForRegistration[airline].length);\n            }\n            return (false, airlinesForRegistration[airline].length);\n        }\n    }\n\n    function fundAirline(uint256 amount) external {\n        flightSuretyData.fund(msg.sender, amount);\n\n        if (flightSuretyData.isFunded(msg.sender)) {\n            emit AirlineFunded(\n                msg.sender,\n                flightSuretyData.getFunds(msg.sender)\n            );\n        }\n    }\n\n    function isFunded(address airline) external view returns (bool) {\n        return flightSuretyData.isFunded(airline);\n    }\n\n    /**\n     * @dev Register a future flight for insuring.\n     *\n     */\n    function registerFlight() external pure {}\n\n    /**\n     * @dev Called after oracle has updated flight status\n     *\n     */\n    function processFlightStatus(\n        address airline,\n        string memory flight,\n        uint256 timestamp,\n        uint8 statusCode\n    ) internal pure {}\n\n    // Generate a request for oracles to fetch flight information\n    function fetchFlightStatus(\n        address airline,\n        string memory flight,\n        uint256 timestamp\n    ) external {\n        uint8 index = getRandomIndex(msg.sender);\n\n        // Generate a unique key for storing the request\n        bytes32 key = keccak256(\n            abi.encodePacked(index, airline, flight, timestamp)\n        );\n\n        // oracleResponses[key] = ResponseInfo({\n        //                                         requester: msg.sender,\n        //                                         isOpen: true\n        //                                     });\n\n        oracleResponses[key].requester = msg.sender;\n        oracleResponses[key].isOpen = true;\n\n        emit OracleRequest(index, airline, flight, timestamp);\n    }\n\n    // region ORACLE MANAGEMENT\n\n    // Incremented to add pseudo-randomness at various points\n    uint8 private nonce = 0;\n\n    // Fee to be paid when registering oracle\n    uint256 public constant REGISTRATION_FEE = 1 ether;\n\n    // Number of oracles that must respond for valid status\n    uint256 private constant MIN_RESPONSES = 3;\n\n    struct Oracle {\n        bool isRegistered;\n        uint8[3] indexes;\n    }\n\n    // Track all registered oracles\n    mapping(address => Oracle) private oracles;\n\n    // Model for responses from oracles\n    struct ResponseInfo {\n        address requester; // Account that requested status\n        bool isOpen; // If open, oracle responses are accepted\n        mapping(uint8 => address[]) responses; // Mapping key is the status code reported\n        // This lets us group responses and identify\n        // the response that majority of the oracles\n    }\n\n    // Track all oracle responses\n    // Key = hash(index, flight, timestamp)\n    mapping(bytes32 => ResponseInfo) private oracleResponses;\n\n    // Event fired each time an oracle submits a response\n    event FlightStatusInfo(\n        address airline,\n        string flight,\n        uint256 timestamp,\n        uint8 status\n    );\n\n    event OracleReport(\n        address airline,\n        string flight,\n        uint256 timestamp,\n        uint8 status\n    );\n\n    // Event fired when flight status request is submitted\n    // Oracles track this and if they have a matching index\n    // they fetch data and submit a response\n    event OracleRequest(\n        uint8 index,\n        address airline,\n        string flight,\n        uint256 timestamp\n    );\n\n    // Register an oracle with the contract\n    function registerOracle() external payable {\n        // Require registration fee\n        require(msg.value >= REGISTRATION_FEE, \"Registration fee is required\");\n\n        uint8[3] memory indexes = generateIndexes(msg.sender);\n\n        oracles[msg.sender] = Oracle({isRegistered: true, indexes: indexes});\n    }\n\n    function getMyIndexes() external view returns (uint8[3] memory) {\n        require(\n            oracles[msg.sender].isRegistered,\n            \"Not registered as an oracle\"\n        );\n\n        return oracles[msg.sender].indexes;\n    }\n\n    // Called by oracle when a response is available to an outstanding request\n    // For the response to be accepted, there must be a pending request that is open\n    // and matches one of the three Indexes randomly assigned to the oracle at the\n    // time of registration (i.e. uninvited oracles are not welcome)\n    function submitOracleResponse(\n        uint8 index,\n        address airline,\n        string memory flight,\n        uint256 timestamp,\n        uint8 statusCode\n    ) external {\n        require(\n            (oracles[msg.sender].indexes[0] == index) ||\n                (oracles[msg.sender].indexes[1] == index) ||\n                (oracles[msg.sender].indexes[2] == index),\n            \"Index does not match oracle request\"\n        );\n\n        bytes32 key = keccak256(\n            abi.encodePacked(index, airline, flight, timestamp)\n        );\n        require(\n            oracleResponses[key].isOpen,\n            \"Flight or timestamp do not match oracle request\"\n        );\n\n        oracleResponses[key].responses[statusCode].push(msg.sender);\n\n        // Information isn't considered verified until at least MIN_RESPONSES\n        // oracles respond with the *** same *** information\n        emit OracleReport(airline, flight, timestamp, statusCode);\n        if (\n            oracleResponses[key].responses[statusCode].length >= MIN_RESPONSES\n        ) {\n            emit FlightStatusInfo(airline, flight, timestamp, statusCode);\n\n            // Handle flight status as appropriate\n            processFlightStatus(airline, flight, timestamp, statusCode);\n        }\n    }\n\n    function getFlightKey(\n        address airline,\n        string memory flight,\n        uint256 timestamp\n    ) internal pure returns (bytes32) {\n        return keccak256(abi.encodePacked(airline, flight, timestamp));\n    }\n\n    // Returns array of three non-duplicating integers from 0-9\n    function generateIndexes(address account)\n        internal\n        returns (uint8[3] memory)\n    {\n        uint8[3] memory indexes;\n        indexes[0] = getRandomIndex(account);\n\n        indexes[1] = indexes[0];\n        while (indexes[1] == indexes[0]) {\n            indexes[1] = getRandomIndex(account);\n        }\n\n        indexes[2] = indexes[1];\n        while ((indexes[2] == indexes[0]) || (indexes[2] == indexes[1])) {\n            indexes[2] = getRandomIndex(account);\n        }\n\n        return indexes;\n    }\n\n    // Returns array of three non-duplicating integers from 0-9\n    function getRandomIndex(address account) internal returns (uint8) {\n        uint8 maxValue = 10;\n\n        // Pseudo random number...the incrementing nonce adds variation\n        uint8 random = uint8(\n            uint256(\n                keccak256(\n                    abi.encodePacked(blockhash(block.number - nonce++), account)\n                )\n            ) % maxValue\n        );\n\n        if (nonce > 250) {\n            nonce = 0; // Can only fetch blockhashes for last 256 blocks so we adapt\n        }\n\n        return random;\n    }\n\n    // endregion\n}\n",
  "sourcePath": "C:\\Users\\User\\blockchain\\FlightSurety\\contracts\\FlightSuretyApp.sol",
  "compiler": {
    "name": "solc",
    "version": "0.8.10+commit.fc410830.Emscripten.clang"
  },
  "schemaVersion": "3.4.3",
  "updatedAt": "2021-11-15T15:28:53.269Z",
  "networkType": "ethereum",
  "devdoc": {
    "kind": "dev",
    "methods": {
      "constructor": {
        "details": "Contract constructor"
      },
      "registerAirline(address)": {
        "details": "Add an airline to the registration queue"
      },
      "registerFlight()": {
        "details": "Register a future flight for insuring."
      }
    },
    "version": 1
  },
  "userdoc": {
    "kind": "user",
    "methods": {},
    "version": 1
  }
}