{
  "contractName": "FlightSuretyData",
  "abi": [
    {
      "inputs": [],
      "stateMutability": "nonpayable",
      "type": "constructor"
    },
    {
      "inputs": [],
      "name": "isOperational",
      "outputs": [
        {
          "internalType": "bool",
          "name": "",
          "type": "bool"
        }
      ],
      "stateMutability": "view",
      "type": "function"
    },
    {
      "inputs": [
        {
          "internalType": "bool",
          "name": "mode",
          "type": "bool"
        }
      ],
      "name": "setOperatingStatus",
      "outputs": [],
      "stateMutability": "nonpayable",
      "type": "function"
    },
    {
      "inputs": [
        {
          "internalType": "address",
          "name": "contractAddress",
          "type": "address"
        }
      ],
      "name": "authorizeCaller",
      "outputs": [],
      "stateMutability": "nonpayable",
      "type": "function"
    },
    {
      "inputs": [
        {
          "internalType": "address",
          "name": "contractAddress",
          "type": "address"
        }
      ],
      "name": "deauthorizeCaller",
      "outputs": [],
      "stateMutability": "nonpayable",
      "type": "function"
    },
    {
      "inputs": [
        {
          "internalType": "address",
          "name": "addr",
          "type": "address"
        }
      ],
      "name": "registerAirline",
      "outputs": [],
      "stateMutability": "nonpayable",
      "type": "function"
    },
    {
      "inputs": [
        {
          "internalType": "address",
          "name": "addr",
          "type": "address"
        }
      ],
      "name": "isAirline",
      "outputs": [
        {
          "internalType": "bool",
          "name": "",
          "type": "bool"
        }
      ],
      "stateMutability": "view",
      "type": "function"
    },
    {
      "inputs": [
        {
          "internalType": "address",
          "name": "addr",
          "type": "address"
        }
      ],
      "name": "isFundedAirline",
      "outputs": [
        {
          "internalType": "bool",
          "name": "",
          "type": "bool"
        }
      ],
      "stateMutability": "view",
      "type": "function"
    },
    {
      "inputs": [],
      "name": "getAirlinesLength",
      "outputs": [
        {
          "internalType": "uint256",
          "name": "",
          "type": "uint256"
        }
      ],
      "stateMutability": "view",
      "type": "function"
    },
    {
      "inputs": [
        {
          "internalType": "address",
          "name": "addr",
          "type": "address"
        }
      ],
      "name": "fundAirline",
      "outputs": [],
      "stateMutability": "nonpayable",
      "type": "function"
    },
    {
      "inputs": [
        {
          "internalType": "address",
          "name": "airline",
          "type": "address"
        },
        {
          "internalType": "string",
          "name": "flight",
          "type": "string"
        },
        {
          "internalType": "uint256",
          "name": "timestamp",
          "type": "uint256"
        }
      ],
      "name": "registerFlight",
      "outputs": [],
      "stateMutability": "nonpayable",
      "type": "function"
    },
    {
      "inputs": [
        {
          "internalType": "address",
          "name": "airline",
          "type": "address"
        },
        {
          "internalType": "string",
          "name": "flight",
          "type": "string"
        },
        {
          "internalType": "uint256",
          "name": "timestamp",
          "type": "uint256"
        }
      ],
      "name": "isFlight",
      "outputs": [
        {
          "internalType": "bool",
          "name": "",
          "type": "bool"
        }
      ],
      "stateMutability": "view",
      "type": "function"
    },
    {
      "inputs": [
        {
          "internalType": "address",
          "name": "airline",
          "type": "address"
        },
        {
          "internalType": "string",
          "name": "flight",
          "type": "string"
        },
        {
          "internalType": "uint256",
          "name": "timestamp",
          "type": "uint256"
        }
      ],
      "name": "isLandedFlight",
      "outputs": [
        {
          "internalType": "bool",
          "name": "",
          "type": "bool"
        }
      ],
      "stateMutability": "view",
      "type": "function"
    },
    {
      "inputs": [
        {
          "internalType": "address",
          "name": "passenger",
          "type": "address"
        },
        {
          "internalType": "address",
          "name": "airline",
          "type": "address"
        },
        {
          "internalType": "string",
          "name": "flight",
          "type": "string"
        },
        {
          "internalType": "uint256",
          "name": "timestamp",
          "type": "uint256"
        }
      ],
      "name": "isInsured",
      "outputs": [
        {
          "internalType": "bool",
          "name": "",
          "type": "bool"
        }
      ],
      "stateMutability": "view",
      "type": "function"
    },
    {
      "inputs": [
        {
          "internalType": "address",
          "name": "airline",
          "type": "address"
        },
        {
          "internalType": "string",
          "name": "flight",
          "type": "string"
        },
        {
          "internalType": "uint256",
          "name": "timestamp",
          "type": "uint256"
        },
        {
          "internalType": "uint8",
          "name": "statusCode",
          "type": "uint8"
        }
      ],
      "name": "processFlightStatus",
      "outputs": [],
      "stateMutability": "nonpayable",
      "type": "function"
    },
    {
      "inputs": [
        {
          "internalType": "address",
          "name": "airline",
          "type": "address"
        },
        {
          "internalType": "string",
          "name": "flight",
          "type": "string"
        },
        {
          "internalType": "uint256",
          "name": "timestamp",
          "type": "uint256"
        },
        {
          "internalType": "address",
          "name": "passenger",
          "type": "address"
        },
        {
          "internalType": "uint256",
          "name": "amount",
          "type": "uint256"
        }
      ],
      "name": "buy",
      "outputs": [],
      "stateMutability": "nonpayable",
      "type": "function"
    },
    {
      "inputs": [
        {
          "internalType": "address",
          "name": "passenger",
          "type": "address"
        }
      ],
      "name": "pay",
      "outputs": [
        {
          "internalType": "uint256",
          "name": "",
          "type": "uint256"
        }
      ],
      "stateMutability": "nonpayable",
      "type": "function"
    }
  ],
  "bytecode": "0x60806040526001600060146101000a81548160ff021916908315150217905550600067ffffffffffffffff8111156200003d576200003c6200035e565b5b6040519080825280602002602001820160405280156200006c5781602001602082028036833780820191505090505b5060039080519060200190620000849291906200023f565b50600067ffffffffffffffff811115620000a357620000a26200035e565b5b604051908082528060200260200182016040528015620000d25781602001602082028036833780820191505090505b5060059080519060200190620000ea929190620002ce565b50348015620000f857600080fd5b50336000806101000a81548173ffffffffffffffffffffffffffffffffffffffff021916908373ffffffffffffffffffffffffffffffffffffffff160217905550604051806040016040528060011515815260200160001515815250600260003373ffffffffffffffffffffffffffffffffffffffff1673ffffffffffffffffffffffffffffffffffffffff16815260200190815260200160002060008201518160000160006101000a81548160ff02191690831515021790555060208201518160000160016101000a81548160ff0219169083151502179055509050506003339080600181540180825580915050600190039060005260206000200160009091909190916101000a81548173ffffffffffffffffffffffffffffffffffffffff021916908373ffffffffffffffffffffffffffffffffffffffff1602179055506200038d565b828054828255906000526020600020908101928215620002bb579160200282015b82811115620002ba5782518260006101000a81548173ffffffffffffffffffffffffffffffffffffffff021916908373ffffffffffffffffffffffffffffffffffffffff1602179055509160200191906001019062000260565b5b509050620002ca919062000320565b5090565b8280548282559060005260206000209081019282156200030d579160200282015b828111156200030c578251825591602001919060010190620002ef565b5b5090506200031c91906200033f565b5090565b5b808211156200033b57600081600090555060010162000321565b5090565b5b808211156200035a57600081600090555060010162000340565b5090565b7f4e487b7100000000000000000000000000000000000000000000000000000000600052604160045260246000fd5b6126d4806200039d6000396000f3fe608060405234801561001057600080fd5b50600436106101005760003560e01c806398696eb511610097578063cd905dff11610066578063cd905dff146102a7578063e6143d95146102c5578063e7bdde3b146102f5578063f3ba4e1b1461031157610100565b806398696eb514610221578063b11dca781461023f578063bdfd98771461025b578063c19b4fae1461027757610100565b80632c388d5d116100d35780632c388d5d146101b15780633cc0be9c146101cd5780636873c21d146101e95780636fbb87981461020557610100565b8063015ea1a0146101055780630c11dedd146101355780630e248a1114610165578063110466ed14610195575b600080fd5b61011f600480360381019061011a9190611d48565b610341565b60405161012c9190611dd7565b60405180910390f35b61014f600480360381019061014a9190611df2565b610454565b60405161015c9190611e2e565b60405180910390f35b61017f600480360381019061017a9190611df2565b6106f9565b60405161018c9190611dd7565b60405180910390f35b6101af60048036038101906101aa9190611e75565b6107de565b005b6101cb60048036038101906101c69190611df2565b610889565b005b6101e760048036038101906101e29190611d48565b610971565b005b61020360048036038101906101fe9190611df2565b610c80565b005b61021f600480360381019061021a9190611df2565b610d60565b005b610229610e99565b6040516102369190611e2e565b60405180910390f35b61025960048036038101906102549190611ea2565b610f32565b005b61027560048036038101906102709190611df2565b61114c565b005b610291600480360381019061028c9190611f3c565b61132a565b60405161029e9190611dd7565b60405180910390f35b6102af61157a565b6040516102bc9190611dd7565b60405180910390f35b6102df60048036038101906102da9190611d48565b611590565b6040516102ec9190611dd7565b60405180910390f35b61030f600480360381019061030a9190611ffd565b61169a565b005b61032b60048036038101906103269190611df2565b611891565b6040516103389190611dd7565b60405180910390f35b6000600160003373ffffffffffffffffffffffffffffffffffffffff1673ffffffffffffffffffffffffffffffffffffffff16815260200190815260200160002060009054906101000a900460ff166103cf576040517f08c379a00000000000000000000000000000000000000000000000000000000081526004016103c6906120e2565b60405180910390fd5b600060ff16600460006104278888888080601f016020809104026020016040519081016040528093929190818152602001838380828437600081840152601f19601f8201169050808301925050505050505087611976565b815260200190815260200160002060000160019054906101000a900460ff1660ff16119050949350505050565b60008060149054906101000a900460ff166104a4576040517f08c379a000000000000000000000000000000000000000000000000000000000815260040161049b90612174565b60405180910390fd5b600160003373ffffffffffffffffffffffffffffffffffffffff1673ffffffffffffffffffffffffffffffffffffffff16815260200190815260200160002060009054906101000a900460ff16610530576040517f08c379a0000000000000000000000000000000000000000000000000000000008152600401610527906120e2565b60405180910390fd5b3273ffffffffffffffffffffffffffffffffffffffff168273ffffffffffffffffffffffffffffffffffffffff161461059e576040517f08c379a0000000000000000000000000000000000000000000000000000000008152600401610595906121e0565b60405180910390fd5b6000600760008473ffffffffffffffffffffffffffffffffffffffff1673ffffffffffffffffffffffffffffffffffffffff1681526020019081526020016000205411610620576040517f08c379a000000000000000000000000000000000000000000000000000000000815260040161061790612272565b60405180910390fd5b6000600760008473ffffffffffffffffffffffffffffffffffffffff1673ffffffffffffffffffffffffffffffffffffffff1681526020019081526020016000205490506000600760008573ffffffffffffffffffffffffffffffffffffffff1673ffffffffffffffffffffffffffffffffffffffff168152602001908152602001600020819055508273ffffffffffffffffffffffffffffffffffffffff166108fc829081150290604051600060405180830381858888f193505050501580156106ef573d6000803e3d6000fd5b5080915050919050565b6000600160003373ffffffffffffffffffffffffffffffffffffffff1673ffffffffffffffffffffffffffffffffffffffff16815260200190815260200160002060009054906101000a900460ff16610787576040517f08c379a000000000000000000000000000000000000000000000000000000000815260040161077e906120e2565b60405180910390fd5b600260008373ffffffffffffffffffffffffffffffffffffffff1673ffffffffffffffffffffffffffffffffffffffff16815260200190815260200160002060000160009054906101000a900460ff169050919050565b60008054906101000a900473ffffffffffffffffffffffffffffffffffffffff1673ffffffffffffffffffffffffffffffffffffffff163373ffffffffffffffffffffffffffffffffffffffff161461086c576040517f08c379a0000000000000000000000000000000000000000000000000000000008152600401610863906122de565b60405180910390fd5b80600060146101000a81548160ff02191690831515021790555050565b60008054906101000a900473ffffffffffffffffffffffffffffffffffffffff1673ffffffffffffffffffffffffffffffffffffffff163373ffffffffffffffffffffffffffffffffffffffff1614610917576040517f08c379a000000000000000000000000000000000000000000000000000000000815260040161090e906122de565b60405180910390fd5b60018060008373ffffffffffffffffffffffffffffffffffffffff1673ffffffffffffffffffffffffffffffffffffffff16815260200190815260200160002060006101000a81548160ff02191690831515021790555050565b600060149054906101000a900460ff166109c0576040517f08c379a00000000000000000000000000000000000000000000000000000000081526004016109b790612174565b60405180910390fd5b600160003373ffffffffffffffffffffffffffffffffffffffff1673ffffffffffffffffffffffffffffffffffffffff16815260200190815260200160002060009054906101000a900460ff16610a4c576040517f08c379a0000000000000000000000000000000000000000000000000000000008152600401610a43906120e2565b60405180910390fd5b6000610a9d8585858080601f016020809104026020016040519081016040528093929190818152602001838380828437600081840152601f19601f8201169050808301925050505050505084611976565b90506004600082815260200190815260200160002060000160009054906101000a900460ff1615610b03576040517f08c379a0000000000000000000000000000000000000000000000000000000008152600401610afa9061234a565b60405180910390fd5b6040518060a00160405280600115158152602001600060ff1681526020018381526020018673ffffffffffffffffffffffffffffffffffffffff16815260200185858080601f016020809104026020016040519081016040528093929190818152602001838380828437600081840152601f19601f820116905080830192505050505050508152506004600083815260200190815260200160002060008201518160000160006101000a81548160ff02191690831515021790555060208201518160000160016101000a81548160ff021916908360ff1602179055506040820151816001015560608201518160020160006101000a81548173ffffffffffffffffffffffffffffffffffffffff021916908373ffffffffffffffffffffffffffffffffffffffff1602179055506080820151816003019080519060200190610c4c929190611ba2565b5090505060058190806001815401808255809150506001900390600052602060002001600090919091909150555050505050565b60008054906101000a900473ffffffffffffffffffffffffffffffffffffffff1673ffffffffffffffffffffffffffffffffffffffff163373ffffffffffffffffffffffffffffffffffffffff1614610d0e576040517f08c379a0000000000000000000000000000000000000000000000000000000008152600401610d05906122de565b60405180910390fd5b600160008273ffffffffffffffffffffffffffffffffffffffff1673ffffffffffffffffffffffffffffffffffffffff16815260200190815260200160002060006101000a81549060ff021916905550565b600060149054906101000a900460ff16610daf576040517f08c379a0000000000000000000000000000000000000000000000000000000008152600401610da690612174565b60405180910390fd5b600160003373ffffffffffffffffffffffffffffffffffffffff1673ffffffffffffffffffffffffffffffffffffffff16815260200190815260200160002060009054906101000a900460ff16610e3b576040517f08c379a0000000000000000000000000000000000000000000000000000000008152600401610e32906120e2565b60405180910390fd5b6001600260008373ffffffffffffffffffffffffffffffffffffffff1673ffffffffffffffffffffffffffffffffffffffff16815260200190815260200160002060000160016101000a81548160ff02191690831515021790555050565b6000600160003373ffffffffffffffffffffffffffffffffffffffff1673ffffffffffffffffffffffffffffffffffffffff16815260200190815260200160002060009054906101000a900460ff16610f27576040517f08c379a0000000000000000000000000000000000000000000000000000000008152600401610f1e906120e2565b60405180910390fd5b600380549050905090565b600060149054906101000a900460ff16610f81576040517f08c379a0000000000000000000000000000000000000000000000000000000008152600401610f7890612174565b60405180910390fd5b600160003373ffffffffffffffffffffffffffffffffffffffff1673ffffffffffffffffffffffffffffffffffffffff16815260200190815260200160002060009054906101000a900460ff1661100d576040517f08c379a0000000000000000000000000000000000000000000000000000000008152600401611004906120e2565b60405180910390fd5b600061105e8787878080601f016020809104026020016040519081016040528093929190818152602001838380828437600081840152601f19601f8201169050808301925050505050505086611976565b90506006600082815260200190815260200160002060405180606001604052808573ffffffffffffffffffffffffffffffffffffffff16815260200184815260200160001515815250908060018154018082558091505060019003906000526020600020906003020160009091909190915060008201518160000160006101000a81548173ffffffffffffffffffffffffffffffffffffffff021916908373ffffffffffffffffffffffffffffffffffffffff1602179055506020820151816001015560408201518160020160006101000a81548160ff021916908315150217905550505050505050505050565b600060149054906101000a900460ff1661119b576040517f08c379a000000000000000000000000000000000000000000000000000000000815260040161119290612174565b60405180910390fd5b600160003373ffffffffffffffffffffffffffffffffffffffff1673ffffffffffffffffffffffffffffffffffffffff16815260200190815260200160002060009054906101000a900460ff16611227576040517f08c379a000000000000000000000000000000000000000000000000000000000815260040161121e906120e2565b60405180910390fd5b604051806040016040528060011515815260200160001515815250600260008373ffffffffffffffffffffffffffffffffffffffff1673ffffffffffffffffffffffffffffffffffffffff16815260200190815260200160002060008201518160000160006101000a81548160ff02191690831515021790555060208201518160000160016101000a81548160ff0219169083151502179055509050506003819080600181540180825580915050600190039060005260206000200160009091909190916101000a81548173ffffffffffffffffffffffffffffffffffffffff021916908373ffffffffffffffffffffffffffffffffffffffff16021790555050565b6000600160003373ffffffffffffffffffffffffffffffffffffffff1673ffffffffffffffffffffffffffffffffffffffff16815260200190815260200160002060009054906101000a900460ff166113b8576040517f08c379a00000000000000000000000000000000000000000000000000000000081526004016113af906120e2565b60405180910390fd5b60006006600061140d8888888080601f016020809104026020016040519081016040528093929190818152602001838380828437600081840152601f19601f8201169050808301925050505050505087611976565b8152602001908152602001600020805480602002602001604051908101604052809291908181526020016000905b828210156114e857838290600052602060002090600302016040518060600160405290816000820160009054906101000a900473ffffffffffffffffffffffffffffffffffffffff1673ffffffffffffffffffffffffffffffffffffffff1673ffffffffffffffffffffffffffffffffffffffff168152602001600182015481526020016002820160009054906101000a900460ff1615151515815250508152602001906001019061143b565b50505050905060005b815181101561156a578773ffffffffffffffffffffffffffffffffffffffff168282815181106115245761152361236a565b5b60200260200101516000015173ffffffffffffffffffffffffffffffffffffffff16141561155757600192505050611571565b8080611562906123c8565b9150506114f1565b5060009150505b95945050505050565b60008060149054906101000a900460ff16905090565b6000600160003373ffffffffffffffffffffffffffffffffffffffff1673ffffffffffffffffffffffffffffffffffffffff16815260200190815260200160002060009054906101000a900460ff1661161e576040517f08c379a0000000000000000000000000000000000000000000000000000000008152600401611615906120e2565b60405180910390fd5b600460006116718787878080601f016020809104026020016040519081016040528093929190818152602001838380828437600081840152601f19601f8201169050808301925050505050505086611976565b815260200190815260200160002060000160009054906101000a900460ff169050949350505050565b600060149054906101000a900460ff166116e9576040517f08c379a00000000000000000000000000000000000000000000000000000000081526004016116e090612174565b60405180910390fd5b600160003373ffffffffffffffffffffffffffffffffffffffff1673ffffffffffffffffffffffffffffffffffffffff16815260200190815260200160002060009054906101000a900460ff16611775576040517f08c379a000000000000000000000000000000000000000000000000000000000815260040161176c906120e2565b60405180910390fd5b60006117c68686868080601f016020809104026020016040519081016040528093929190818152602001838380828437600081840152601f19601f8201169050808301925050505050505085611976565b9050600060ff166004600083815260200190815260200160002060000160019054906101000a900460ff1660ff16141561188957816004600083815260200190815260200160002060000160016101000a81548160ff021916908360ff160217905550601460ff168260ff161415611888576118878686868080601f016020809104026020016040519081016040528093929190818152602001838380828437600081840152601f19601f82011690508083019250505050505050856119ac565b5b5b505050505050565b6000600160003373ffffffffffffffffffffffffffffffffffffffff1673ffffffffffffffffffffffffffffffffffffffff16815260200190815260200160002060009054906101000a900460ff1661191f576040517f08c379a0000000000000000000000000000000000000000000000000000000008152600401611916906120e2565b60405180910390fd5b600260008373ffffffffffffffffffffffffffffffffffffffff1673ffffffffffffffffffffffffffffffffffffffff16815260200190815260200160002060000160019054906101000a900460ff169050919050565b600083838360405160200161198d939291906124f4565b6040516020818303038152906040528051906020012090509392505050565b600060149054906101000a900460ff166119fb576040517f08c379a00000000000000000000000000000000000000000000000000000000081526004016119f290612174565b60405180910390fd5b6000611a08848484611976565b905060005b6006600083815260200190815260200160002080549050811015611b9b576000600660008481526020019081526020016000208281548110611a5257611a5161236a565b5b90600052602060002090600302016040518060600160405290816000820160009054906101000a900473ffffffffffffffffffffffffffffffffffffffff1673ffffffffffffffffffffffffffffffffffffffff1673ffffffffffffffffffffffffffffffffffffffff168152602001600182015481526020016002820160009054906101000a900460ff161515151581525050905060001515816040015115151415611b875760018160400190151590811515815250506000600260038360200151611b1f919061252d565b611b2991906125b6565b90508060076000846000015173ffffffffffffffffffffffffffffffffffffffff1673ffffffffffffffffffffffffffffffffffffffff1681526020019081526020016000206000828254611b7e91906125e7565b92505081905550505b508080611b93906123c8565b915050611a0d565b5050505050565b828054611bae9061266c565b90600052602060002090601f016020900481019282611bd05760008555611c17565b82601f10611be957805160ff1916838001178555611c17565b82800160010185558215611c17579182015b82811115611c16578251825591602001919060010190611bfb565b5b509050611c249190611c28565b5090565b5b80821115611c41576000816000905550600101611c29565b5090565b600080fd5b600080fd5b600073ffffffffffffffffffffffffffffffffffffffff82169050919050565b6000611c7a82611c4f565b9050919050565b611c8a81611c6f565b8114611c9557600080fd5b50565b600081359050611ca781611c81565b92915050565b600080fd5b600080fd5b600080fd5b60008083601f840112611cd257611cd1611cad565b5b8235905067ffffffffffffffff811115611cef57611cee611cb2565b5b602083019150836001820283011115611d0b57611d0a611cb7565b5b9250929050565b6000819050919050565b611d2581611d12565b8114611d3057600080fd5b50565b600081359050611d4281611d1c565b92915050565b60008060008060608587031215611d6257611d61611c45565b5b6000611d7087828801611c98565b945050602085013567ffffffffffffffff811115611d9157611d90611c4a565b5b611d9d87828801611cbc565b93509350506040611db087828801611d33565b91505092959194509250565b60008115159050919050565b611dd181611dbc565b82525050565b6000602082019050611dec6000830184611dc8565b92915050565b600060208284031215611e0857611e07611c45565b5b6000611e1684828501611c98565b91505092915050565b611e2881611d12565b82525050565b6000602082019050611e436000830184611e1f565b92915050565b611e5281611dbc565b8114611e5d57600080fd5b50565b600081359050611e6f81611e49565b92915050565b600060208284031215611e8b57611e8a611c45565b5b6000611e9984828501611e60565b91505092915050565b60008060008060008060a08789031215611ebf57611ebe611c45565b5b6000611ecd89828a01611c98565b965050602087013567ffffffffffffffff811115611eee57611eed611c4a565b5b611efa89828a01611cbc565b95509550506040611f0d89828a01611d33565b9350506060611f1e89828a01611c98565b9250506080611f2f89828a01611d33565b9150509295509295509295565b600080600080600060808688031215611f5857611f57611c45565b5b6000611f6688828901611c98565b9550506020611f7788828901611c98565b945050604086013567ffffffffffffffff811115611f9857611f97611c4a565b5b611fa488828901611cbc565b93509350506060611fb788828901611d33565b9150509295509295909350565b600060ff82169050919050565b611fda81611fc4565b8114611fe557600080fd5b50565b600081359050611ff781611fd1565b92915050565b60008060008060006080868803121561201957612018611c45565b5b600061202788828901611c98565b955050602086013567ffffffffffffffff81111561204857612047611c4a565b5b61205488828901611cbc565b9450945050604061206788828901611d33565b925050606061207888828901611fe8565b9150509295509295909350565b600082825260208201905092915050565b7f43616c6c6572206973206e6f7420617574686f72697a65640000000000000000600082015250565b60006120cc601883612085565b91506120d782612096565b602082019050919050565b600060208201905081810360008301526120fb816120bf565b9050919050565b7f436f6e74726163742069732063757272656e746c79206e6f74206f706572617460008201527f696f6e616c000000000000000000000000000000000000000000000000000000602082015250565b600061215e602583612085565b915061216982612102565b604082019050919050565b6000602082019050818103600083015261218d81612151565b9050919050565b7f436f6e74726163747320646973616c6c6f776564000000000000000000000000600082015250565b60006121ca601483612085565b91506121d582612194565b602082019050919050565b600060208201905081810360008301526121f9816121bd565b9050919050565b7f4e6f20617661696c61626c652066756e647320666f722077697468647261776160008201527f6c00000000000000000000000000000000000000000000000000000000000000602082015250565b600061225c602183612085565b915061226782612200565b604082019050919050565b6000602082019050818103600083015261228b8161224f565b9050919050565b7f43616c6c6572206973206e6f7420636f6e7472616374206f776e657200000000600082015250565b60006122c8601c83612085565b91506122d382612292565b602082019050919050565b600060208201905081810360008301526122f7816122bb565b9050919050565b7f466c6967687420616c7265616479207265676973746572656400000000000000600082015250565b6000612334601983612085565b915061233f826122fe565b602082019050919050565b6000602082019050818103600083015261236381612327565b9050919050565b7f4e487b7100000000000000000000000000000000000000000000000000000000600052603260045260246000fd5b7f4e487b7100000000000000000000000000000000000000000000000000000000600052601160045260246000fd5b60006123d382611d12565b91507fffffffffffffffffffffffffffffffffffffffffffffffffffffffffffffffff82141561240657612405612399565b5b600182019050919050565b60008160601b9050919050565b600061242982612411565b9050919050565b600061243b8261241e565b9050919050565b61245361244e82611c6f565b612430565b82525050565b600081519050919050565b600081905092915050565b60005b8381101561248d578082015181840152602081019050612472565b8381111561249c576000848401525b50505050565b60006124ad82612459565b6124b78185612464565b93506124c781856020860161246f565b80840191505092915050565b6000819050919050565b6124ee6124e982611d12565b6124d3565b82525050565b60006125008286612442565b60148201915061251082856124a2565b915061251c82846124dd565b602082019150819050949350505050565b600061253882611d12565b915061254383611d12565b9250817fffffffffffffffffffffffffffffffffffffffffffffffffffffffffffffffff048311821515161561257c5761257b612399565b5b828202905092915050565b7f4e487b7100000000000000000000000000000000000000000000000000000000600052601260045260246000fd5b60006125c182611d12565b91506125cc83611d12565b9250826125dc576125db612587565b5b828204905092915050565b60006125f282611d12565b91506125fd83611d12565b9250827fffffffffffffffffffffffffffffffffffffffffffffffffffffffffffffffff0382111561263257612631612399565b5b828201905092915050565b7f4e487b7100000000000000000000000000000000000000000000000000000000600052602260045260246000fd5b6000600282049050600182168061268457607f821691505b602082108114156126985761269761263d565b5b5091905056fea264697066735822122092f914600207a434c38d641dcdc2692a5de4d56a43946d1636d72f501aa590a364736f6c634300080a0033",
  "immutableReferences": {},
  "source": "// SPDX-License-Identifier: MIT\npragma solidity ^0.8.9; // >=0.8.0 has SafeMath built-in\n\ncontract FlightSuretyData {\n\n/********************************************************************************************/\n    /*                                       DATA VARIABLES                                     */\n    /********************************************************************************************/\n\n    // Flight status codes\n    uint8 private constant STATUS_CODE_UNKNOWN = 0;\n    uint8 private constant STATUS_CODE_ON_TIME = 10;\n    uint8 private constant STATUS_CODE_LATE_AIRLINE = 20;\n    uint8 private constant STATUS_CODE_LATE_WEATHER = 30;\n    uint8 private constant STATUS_CODE_LATE_TECHNICAL = 40;\n    uint8 private constant STATUS_CODE_LATE_OTHER = 50;\n\n    address private contractOwner; // address used to deploy contract\n    bool private operational = true; // disallows all state changes throughout the contract if false\n\n    mapping(address => bool) private authorizedContracts;\n\n    struct Airline {\n        bool isRegistered;\n        bool isFunded;\n    }\n    mapping(address => Airline) private airlines;\n    address[] private registeredAirlines = new address[](0);\n\n    struct Flight {\n        bool isRegistered;\n        uint8 statusCode;\n        uint256 updatedTimestamp;\n        address airline;\n        string flight;\n    }\n    mapping(bytes32 => Flight) private flights;\n    bytes32[] private registeredFlights = new bytes32[](0);\n\n    struct Insurance {\n        address passenger;\n        uint256 amount;\n        bool isCredited;\n    }\n    // Flight key => Insurances\n    mapping(bytes32 => Insurance[]) private insuredPassengersPerFlight;\n    mapping(address => uint256) private pendingPayments;\n\n    /********************************************************************************************/\n    /*                                       CONSTRUCTOR                                        */\n    /********************************************************************************************/\n\n    constructor() {\n        contractOwner = msg.sender;\n        airlines[msg.sender] = Airline({isRegistered: true, isFunded: false});\n        registeredAirlines.push(msg.sender);\n    }\n\n    /********************************************************************************************/\n    /*                                       FUNCTION MODIFIERS                                 */\n    /********************************************************************************************/\n\n    // Modifiers help avoid duplication of code. They are typically used to validate something\n    // before a function is allowed to be executed.\n\n    modifier requireIsOperational() {\n        require(operational, \"Contract is currently not operational\");\n        _;\n    }\n\n    modifier requireContractOwner() {\n        require(msg.sender == contractOwner, \"Caller is not contract owner\");\n        _;\n    }\n\n    modifier requireAuthorized() {\n        require(authorizedContracts[msg.sender], \"Caller is not authorized\");\n        _;\n    }\n\n    /********************************************************************************************/\n    /*                                       UTILITY FUNCTIONS                                  */\n    /********************************************************************************************/\n\n    function isOperational() public view returns (bool) {\n        return operational;\n    }\n\n    function setOperatingStatus(bool mode) public requireContractOwner {\n        operational = mode;\n    }\n\n    function authorizeCaller(address contractAddress)\n        public\n        requireContractOwner\n    {\n        authorizedContracts[contractAddress] = true;\n    }\n\n    function deauthorizeCaller(address contractAddress)\n        public\n        requireContractOwner\n    {\n        delete authorizedContracts[contractAddress];\n    }\n\n    /********************************************************************************************/\n    /*                                     SMART CONTRACT FUNCTIONS                             */\n    /********************************************************************************************/\n\n    function registerAirline(address addr)\n        external\n        requireIsOperational\n        requireAuthorized\n    {\n        airlines[addr] = Airline({isRegistered: true, isFunded: false});\n        registeredAirlines.push(addr);\n    }\n\n    function isAirline(address addr)\n        external\n        view\n        requireAuthorized\n        returns (bool)\n    {\n        return airlines[addr].isRegistered;\n    }\n\n    function isFundedAirline(address addr)\n        external\n        view\n        requireAuthorized\n        returns (bool)\n    {\n        return airlines[addr].isFunded;\n    }\n\n    function getAirlinesLength()\n        external\n        view\n        requireAuthorized\n        returns (uint256)\n    {\n        return registeredAirlines.length;\n    }\n\n    function fundAirline(address addr)\n        external\n        requireIsOperational\n        requireAuthorized\n    {\n        airlines[addr].isFunded = true;\n    }\n\n    function registerFlight(\n        address airline,\n        string calldata flight,\n        uint256 timestamp\n    ) external requireIsOperational requireAuthorized {\n        bytes32 flightKey = getFlightKey(airline, flight, timestamp);\n        require(\n            !flights[flightKey].isRegistered,\n            \"Flight already registered\"\n        );\n\n        flights[flightKey] = Flight({\n            isRegistered: true,\n            statusCode: 0,\n            updatedTimestamp: timestamp,\n            airline: airline,\n            flight: flight\n        });\n\n        registeredFlights.push(flightKey);\n    }\n\n    function isFlight(\n        address airline,\n        string calldata flight,\n        uint256 timestamp\n    ) external view requireAuthorized returns (bool) {\n        return flights[getFlightKey(airline, flight, timestamp)].isRegistered;\n    }\n\n    function isLandedFlight(\n        address airline,\n        string calldata flight,\n        uint256 timestamp\n    ) external view requireAuthorized returns (bool) {\n        return\n            flights[getFlightKey(airline, flight, timestamp)].statusCode >\n            STATUS_CODE_UNKNOWN;\n    }\n\n    function isInsured(\n        address passenger,\n        address airline,\n        string calldata flight,\n        uint256 timestamp\n    ) external view requireAuthorized returns (bool) {\n        Insurance[] memory insuredPassengers = insuredPassengersPerFlight[\n            getFlightKey(airline, flight, timestamp)\n        ];\n        for (uint256 i = 0; i < insuredPassengers.length; i++) {\n            if (insuredPassengers[i].passenger == passenger) {\n                return true;\n            }\n        }\n        return false;\n    }\n\n    function processFlightStatus(\n        address airline,\n        string calldata flight,\n        uint256 timestamp,\n        uint8 statusCode\n    ) external requireIsOperational requireAuthorized {\n        bytes32 flightKey = getFlightKey(airline, flight, timestamp);\n\n        if (flights[flightKey].statusCode == STATUS_CODE_UNKNOWN) {\n            flights[flightKey].statusCode = statusCode;\n            if (statusCode == STATUS_CODE_LATE_AIRLINE) {\n                creditInsurees(airline, flight, timestamp);\n            }\n        }\n    }\n\n    function buy(\n        address airline,\n        string calldata flight,\n        uint256 timestamp,\n        address passenger,\n        uint256 amount\n    ) external requireIsOperational requireAuthorized {\n        bytes32 flightKey = getFlightKey(airline, flight, timestamp);\n\n        insuredPassengersPerFlight[flightKey].push(\n            Insurance({passenger: passenger, amount: amount, isCredited: false})\n        );\n    }\n\n    function creditInsurees(\n        address airline,\n        string memory flight,\n        uint256 timestamp\n    ) internal requireIsOperational {\n        bytes32 flightKey = getFlightKey(airline, flight, timestamp);\n\n        for (\n            uint256 i = 0;\n            i < insuredPassengersPerFlight[flightKey].length;\n            i++\n        ) {\n            Insurance memory insurance = insuredPassengersPerFlight[flightKey][\n                i\n            ];\n\n            if (insurance.isCredited == false) {\n                insurance.isCredited = true;\n                uint256 amount = (insurance.amount * 3) / 2;\n                pendingPayments[insurance.passenger] += amount;\n            }\n        }\n    }\n\n    function pay(address passenger)\n        external\n        requireIsOperational\n        requireAuthorized\n        returns (uint256)\n    {\n        require(passenger == tx.origin, \"Contracts disallowed\");\n        require(\n            pendingPayments[passenger] > 0,\n            \"No available funds for withdrawal\"\n        );\n\n        uint256 amount = pendingPayments[passenger];\n        pendingPayments[passenger] = 0;\n\n        payable(passenger).transfer(amount);\n\n        return amount;\n    }\n\n    function getFlightKey(\n        address airline,\n        string memory flight,\n        uint256 timestamp\n    ) internal pure returns (bytes32) {\n        return keccak256(abi.encodePacked(airline, flight, timestamp));\n    }\n}\n",
  "sourcePath": "C:\\Users\\User\\blockchain\\FlightSurety\\contracts\\FlightSuretyData.sol",
  "compiler": {
    "name": "solc",
    "version": "0.8.10+commit.fc410830.Emscripten.clang"
  },
  "schemaVersion": "3.4.3",
  "updatedAt": "2021-11-15T09:00:58.527Z",
  "devdoc": {
    "kind": "dev",
    "methods": {},
    "version": 1
  },
  "userdoc": {
    "kind": "user",
    "methods": {},
    "version": 1
  }
}