{
  "contractName": "FlightSuretyApp",
  "abi": [
    {
      "inputs": [
        {
          "internalType": "address",
          "name": "dataContract",
          "type": "address"
        }
      ],
      "stateMutability": "nonpayable",
      "type": "constructor"
    },
    {
      "anonymous": false,
      "inputs": [
        {
          "indexed": false,
          "internalType": "address",
          "name": "passenger",
          "type": "address"
        },
        {
          "indexed": false,
          "internalType": "uint256",
          "name": "amount",
          "type": "uint256"
        }
      ],
      "name": "AccountWithdrawn",
      "type": "event"
    },
    {
      "anonymous": false,
      "inputs": [
        {
          "indexed": false,
          "internalType": "address",
          "name": "addr",
          "type": "address"
        }
      ],
      "name": "AirlineFunded",
      "type": "event"
    },
    {
      "anonymous": false,
      "inputs": [
        {
          "indexed": false,
          "internalType": "address",
          "name": "addr",
          "type": "address"
        }
      ],
      "name": "AirlineRegistered",
      "type": "event"
    },
    {
      "anonymous": false,
      "inputs": [
        {
          "indexed": false,
          "internalType": "address",
          "name": "airline",
          "type": "address"
        },
        {
          "indexed": false,
          "internalType": "string",
          "name": "flight",
          "type": "string"
        },
        {
          "indexed": false,
          "internalType": "uint256",
          "name": "timestamp",
          "type": "uint256"
        }
      ],
      "name": "FlightRegistered",
      "type": "event"
    },
    {
      "anonymous": false,
      "inputs": [
        {
          "indexed": false,
          "internalType": "address",
          "name": "airline",
          "type": "address"
        },
        {
          "indexed": false,
          "internalType": "string",
          "name": "flight",
          "type": "string"
        },
        {
          "indexed": false,
          "internalType": "uint256",
          "name": "timestamp",
          "type": "uint256"
        },
        {
          "indexed": false,
          "internalType": "uint8",
          "name": "status",
          "type": "uint8"
        }
      ],
      "name": "FlightStatusInfo",
      "type": "event"
    },
    {
      "anonymous": false,
      "inputs": [
        {
          "indexed": false,
          "internalType": "address",
          "name": "airline",
          "type": "address"
        },
        {
          "indexed": false,
          "internalType": "string",
          "name": "flight",
          "type": "string"
        },
        {
          "indexed": false,
          "internalType": "uint256",
          "name": "timestamp",
          "type": "uint256"
        },
        {
          "indexed": false,
          "internalType": "address",
          "name": "passenger",
          "type": "address"
        },
        {
          "indexed": false,
          "internalType": "uint256",
          "name": "amount",
          "type": "uint256"
        }
      ],
      "name": "InsuranceBought",
      "type": "event"
    },
    {
      "anonymous": false,
      "inputs": [
        {
          "indexed": false,
          "internalType": "address",
          "name": "airline",
          "type": "address"
        },
        {
          "indexed": false,
          "internalType": "string",
          "name": "flight",
          "type": "string"
        },
        {
          "indexed": false,
          "internalType": "uint256",
          "name": "timestamp",
          "type": "uint256"
        },
        {
          "indexed": false,
          "internalType": "uint8",
          "name": "status",
          "type": "uint8"
        }
      ],
      "name": "OracleReport",
      "type": "event"
    },
    {
      "anonymous": false,
      "inputs": [
        {
          "indexed": false,
          "internalType": "uint8",
          "name": "index",
          "type": "uint8"
        },
        {
          "indexed": false,
          "internalType": "address",
          "name": "airline",
          "type": "address"
        },
        {
          "indexed": false,
          "internalType": "string",
          "name": "flight",
          "type": "string"
        },
        {
          "indexed": false,
          "internalType": "uint256",
          "name": "timestamp",
          "type": "uint256"
        }
      ],
      "name": "OracleRequest",
      "type": "event"
    },
    {
      "inputs": [],
      "name": "REGISTRATION_FEE",
      "outputs": [
        {
          "internalType": "uint256",
          "name": "",
          "type": "uint256"
        }
      ],
      "stateMutability": "view",
      "type": "function"
    },
    {
      "inputs": [],
      "name": "isOperational",
      "outputs": [
        {
          "internalType": "bool",
          "name": "",
          "type": "bool"
        }
      ],
      "stateMutability": "view",
      "type": "function"
    },
    {
      "inputs": [
        {
          "internalType": "bool",
          "name": "mode",
          "type": "bool"
        }
      ],
      "name": "setOperatingStatus",
      "outputs": [],
      "stateMutability": "nonpayable",
      "type": "function"
    },
    {
      "inputs": [
        {
          "internalType": "address",
          "name": "addr",
          "type": "address"
        }
      ],
      "name": "registerAirline",
      "outputs": [],
      "stateMutability": "nonpayable",
      "type": "function"
    },
    {
      "inputs": [],
      "name": "fundAirline",
      "outputs": [],
      "stateMutability": "payable",
      "type": "function"
    },
    {
      "inputs": [
        {
          "internalType": "string",
          "name": "flight",
          "type": "string"
        },
        {
          "internalType": "uint256",
          "name": "timestamp",
          "type": "uint256"
        }
      ],
      "name": "registerFlight",
      "outputs": [],
      "stateMutability": "nonpayable",
      "type": "function"
    },
    {
      "inputs": [
        {
          "internalType": "address",
          "name": "airline",
          "type": "address"
        },
        {
          "internalType": "string",
          "name": "flight",
          "type": "string"
        },
        {
          "internalType": "uint256",
          "name": "timestamp",
          "type": "uint256"
        }
      ],
      "name": "buy",
      "outputs": [],
      "stateMutability": "payable",
      "type": "function"
    },
    {
      "inputs": [],
      "name": "pay",
      "outputs": [],
      "stateMutability": "nonpayable",
      "type": "function"
    },
    {
      "inputs": [
        {
          "internalType": "address",
          "name": "airline",
          "type": "address"
        },
        {
          "internalType": "string",
          "name": "flight",
          "type": "string"
        },
        {
          "internalType": "uint256",
          "name": "timestamp",
          "type": "uint256"
        }
      ],
      "name": "fetchFlightStatus",
      "outputs": [],
      "stateMutability": "nonpayable",
      "type": "function"
    },
    {
      "inputs": [],
      "name": "registerOracle",
      "outputs": [],
      "stateMutability": "payable",
      "type": "function"
    },
    {
      "inputs": [],
      "name": "getMyIndexes",
      "outputs": [
        {
          "internalType": "uint8[3]",
          "name": "",
          "type": "uint8[3]"
        }
      ],
      "stateMutability": "view",
      "type": "function"
    },
    {
      "inputs": [
        {
          "internalType": "uint8",
          "name": "index",
          "type": "uint8"
        },
        {
          "internalType": "address",
          "name": "airline",
          "type": "address"
        },
        {
          "internalType": "string",
          "name": "flight",
          "type": "string"
        },
        {
          "internalType": "uint256",
          "name": "timestamp",
          "type": "uint256"
        },
        {
          "internalType": "uint8",
          "name": "statusCode",
          "type": "uint8"
        }
      ],
      "name": "submitOracleResponse",
      "outputs": [],
      "stateMutability": "nonpayable",
      "type": "function"
    }
  ],
  "bytecode": "0x608060405260018060146101000a81548160ff021916908315150217905550600067ffffffffffffffff8111156200003c576200003b62000209565b5b6040519080825280602002602001820160405280156200006b5781602001602082028036833780820191505090505b5060029080519060200190620000839291906200015b565b506000600360006101000a81548160ff021916908360ff160217905550348015620000ad57600080fd5b50604051620034af380380620034af8339818101604052810190620000d39190620002a2565b33600160006101000a81548173ffffffffffffffffffffffffffffffffffffffff021916908373ffffffffffffffffffffffffffffffffffffffff160217905550806000806101000a81548173ffffffffffffffffffffffffffffffffffffffff021916908373ffffffffffffffffffffffffffffffffffffffff16021790555050620002d4565b828054828255906000526020600020908101928215620001d7579160200282015b82811115620001d65782518260006101000a81548173ffffffffffffffffffffffffffffffffffffffff021916908373ffffffffffffffffffffffffffffffffffffffff160217905550916020019190600101906200017c565b5b509050620001e69190620001ea565b5090565b5b8082111562000205576000816000905550600101620001eb565b5090565b7f4e487b7100000000000000000000000000000000000000000000000000000000600052604160045260246000fd5b600080fd5b600073ffffffffffffffffffffffffffffffffffffffff82169050919050565b60006200026a826200023d565b9050919050565b6200027c816200025d565b81146200028857600080fd5b50565b6000815190506200029c8162000271565b92915050565b600060208284031215620002bb57620002ba62000238565b5b6000620002cb848285016200028b565b91505092915050565b6131cb80620002e46000396000f3fe6080604052600436106100a75760003560e01c80639ed18927116100645780639ed1892714610175578063b1c46d221461017f578063bdfd98771461019b578063c10f2700146101c4578063cd905dff146101ed578063f83f11c014610218576100a7565b8063110466ed146100ac5780631b9265b8146100d5578063339d2590146100ec57806339cfc995146100f65780635f1cc0e61461011f57806364b4f7511461014a575b600080fd5b3480156100b857600080fd5b506100d360048036038101906100ce9190611ee6565b610241565b005b3480156100e157600080fd5b506100ea6102ee565b005b6100f461041a565b005b34801561010257600080fd5b5061011d6004803603810190610118919061208f565b610507565b005b34801561012b57600080fd5b506101346106fd565b60405161014191906121a3565b60405180910390f35b34801561015657600080fd5b5061015f61083d565b60405161016c91906121cd565b60405180910390f35b61017d610849565b005b61019960048036038101906101949190612246565b610a7f565b005b3480156101a757600080fd5b506101c260048036038101906101bd91906122b5565b610eaa565b005b3480156101d057600080fd5b506101eb60048036038101906101e6919061230e565b611520565b005b3480156101f957600080fd5b506102026118a9565b60405161020f91906123b4565b60405180910390f35b34801561022457600080fd5b5061023f600480360381019061023a9190612246565b6118c0565b005b600160009054906101000a900473ffffffffffffffffffffffffffffffffffffffff1673ffffffffffffffffffffffffffffffffffffffff163373ffffffffffffffffffffffffffffffffffffffff16146102d1576040517f08c379a00000000000000000000000000000000000000000000000000000000081526004016102c89061242c565b60405180910390fd5b80600160146101000a81548160ff02191690831515021790555050565b600160149054906101000a900460ff1661033d576040517f08c379a0000000000000000000000000000000000000000000000000000000008152600401610334906124be565b60405180910390fd5b60008060009054906101000a900473ffffffffffffffffffffffffffffffffffffffff1673ffffffffffffffffffffffffffffffffffffffff16630c11dedd336040518263ffffffff1660e01b815260040161039991906124ed565b6020604051808303816000875af11580156103b8573d6000803e3d6000fd5b505050506040513d601f19601f820116820180604052508101906103dc919061251d565b90507fdfeacc538b4e5daa9b6f7bd5267be179488543805cd27e8022d2883a4dc847d7338260405161040f92919061254a565b60405180910390a150565b670de0b6b3a7640000341015610465576040517f08c379a000000000000000000000000000000000000000000000000000000000815260040161045c906125bf565b60405180910390fd5b6000610470336119ed565b9050604051806040016040528060011515815260200182815250600460003373ffffffffffffffffffffffffffffffffffffffff1673ffffffffffffffffffffffffffffffffffffffff16815260200190815260200160002060008201518160000160006101000a81548160ff021916908315150217905550602082015181600101906003610500929190611d37565b5090505050565b600160149054906101000a900460ff16610556576040517f08c379a000000000000000000000000000000000000000000000000000000000815260040161054d906124be565b60405180910390fd5b60008054906101000a900473ffffffffffffffffffffffffffffffffffffffff1673ffffffffffffffffffffffffffffffffffffffff1663f3ba4e1b336040518263ffffffff1660e01b81526004016105af91906124ed565b602060405180830381865afa1580156105cc573d6000803e3d6000fd5b505050506040513d601f19601f820116820180604052508101906105f091906125f4565b61062f576040517f08c379a00000000000000000000000000000000000000000000000000000000081526004016106269061266d565b60405180910390fd5b60008054906101000a900473ffffffffffffffffffffffffffffffffffffffff1673ffffffffffffffffffffffffffffffffffffffff16633cc0be9c3384846040518463ffffffff1660e01b815260040161068c93929190612704565b600060405180830381600087803b1580156106a657600080fd5b505af11580156106ba573d6000803e3d6000fd5b505050507f34151dfe5f5d2e1a6ed2a8b951d1f9935b00b4711e31a6c7972eaee3b81c1f023383836040516106f193929190612704565b60405180910390a15050565b610705611dd1565b600460003373ffffffffffffffffffffffffffffffffffffffff1673ffffffffffffffffffffffffffffffffffffffff16815260200190815260200160002060000160009054906101000a900460ff16610794576040517f08c379a000000000000000000000000000000000000000000000000000000000815260040161078b9061278e565b60405180910390fd5b600460003373ffffffffffffffffffffffffffffffffffffffff1673ffffffffffffffffffffffffffffffffffffffff168152602001908152602001600020600101600380602002604051908101604052809291908260038015610833576020028201916000905b82829054906101000a900460ff1660ff16815260200190600101906020826000010492830192600103820291508084116107fc5790505b5050505050905090565b670de0b6b3a764000081565b600160149054906101000a900460ff16610898576040517f08c379a000000000000000000000000000000000000000000000000000000000815260040161088f906124be565b60405180910390fd5b60008054906101000a900473ffffffffffffffffffffffffffffffffffffffff1673ffffffffffffffffffffffffffffffffffffffff16630e248a11336040518263ffffffff1660e01b81526004016108f191906124ed565b602060405180830381865afa15801561090e573d6000803e3d6000fd5b505050506040513d601f19601f8201168201806040525081019061093291906125f4565b610971576040517f08c379a000000000000000000000000000000000000000000000000000000000815260040161096890612820565b60405180910390fd5b678ac7230489e8000034146109bb576040517f08c379a00000000000000000000000000000000000000000000000000000000081526004016109b29061288c565b60405180910390fd5b60008054906101000a900473ffffffffffffffffffffffffffffffffffffffff1673ffffffffffffffffffffffffffffffffffffffff16636fbb8798336040518263ffffffff1660e01b8152600401610a1491906124ed565b600060405180830381600087803b158015610a2e57600080fd5b505af1158015610a42573d6000803e3d6000fd5b505050507f3c348ba34685212d5d04f432a9e569b642b180df0227a6b0c899050c4acb7af833604051610a7591906124ed565b60405180910390a1565b600160149054906101000a900460ff16610ace576040517f08c379a0000000000000000000000000000000000000000000000000000000008152600401610ac5906124be565b60405180910390fd5b82828260008054906101000a900473ffffffffffffffffffffffffffffffffffffffff1673ffffffffffffffffffffffffffffffffffffffff1663e6143d958484846040518463ffffffff1660e01b8152600401610b2e93929190612704565b602060405180830381865afa158015610b4b573d6000803e3d6000fd5b505050506040513d601f19601f82011682018060405250810190610b6f91906125f4565b15610baf576040517f08c379a0000000000000000000000000000000000000000000000000000000008152600401610ba6906128f8565b60405180910390fd5b85858560008054906101000a900473ffffffffffffffffffffffffffffffffffffffff1673ffffffffffffffffffffffffffffffffffffffff1663015ea1a08484846040518463ffffffff1660e01b8152600401610c0f93929190612704565b602060405180830381865afa158015610c2c573d6000803e3d6000fd5b505050506040513d601f19601f82011682018060405250810190610c5091906125f4565b15610c90576040517f08c379a0000000000000000000000000000000000000000000000000000000008152600401610c8790612964565b60405180910390fd5b88888860008054906101000a900473ffffffffffffffffffffffffffffffffffffffff1673ffffffffffffffffffffffffffffffffffffffff1663c19b4fae338585856040518563ffffffff1660e01b8152600401610cf29493929190612984565b602060405180830381865afa158015610d0f573d6000803e3d6000fd5b505050506040513d601f19601f82011682018060405250810190610d3391906125f4565b15610d73576040517f08c379a0000000000000000000000000000000000000000000000000000000008152600401610d6a90612a42565b60405180910390fd5b600034118015610d8b5750670de0b6b3a76400003411155b610dca576040517f08c379a0000000000000000000000000000000000000000000000000000000008152600401610dc190612ad4565b60405180910390fd5b60008054906101000a900473ffffffffffffffffffffffffffffffffffffffff1673ffffffffffffffffffffffffffffffffffffffff1663b11dca788d8d8d33346040518663ffffffff1660e01b8152600401610e2b959493929190612af4565b600060405180830381600087803b158015610e4557600080fd5b505af1158015610e59573d6000803e3d6000fd5b505050507faf3cc21a41c2db61b470afad6428c9b0ebd2efd04587bf026874c4d79c4d92c08c8c8c3334604051610e94959493929190612af4565b60405180910390a1505050505050505050505050565b600160149054906101000a900460ff16610ef9576040517f08c379a0000000000000000000000000000000000000000000000000000000008152600401610ef0906124be565b60405180910390fd5b60008054906101000a900473ffffffffffffffffffffffffffffffffffffffff1673ffffffffffffffffffffffffffffffffffffffff1663f3ba4e1b336040518263ffffffff1660e01b8152600401610f5291906124ed565b602060405180830381865afa158015610f6f573d6000803e3d6000fd5b505050506040513d601f19601f82011682018060405250810190610f9391906125f4565b610fd2576040517f08c379a0000000000000000000000000000000000000000000000000000000008152600401610fc99061266d565b60405180910390fd5b80600073ffffffffffffffffffffffffffffffffffffffff168173ffffffffffffffffffffffffffffffffffffffff161415611043576040517f08c379a000000000000000000000000000000000000000000000000000000000815260040161103a90612b9a565b60405180910390fd5b60008054906101000a900473ffffffffffffffffffffffffffffffffffffffff1673ffffffffffffffffffffffffffffffffffffffff16630e248a11836040518263ffffffff1660e01b815260040161109c91906124ed565b602060405180830381865afa1580156110b9573d6000803e3d6000fd5b505050506040513d601f19601f820116820180604052508101906110dd91906125f4565b1561111d576040517f08c379a000000000000000000000000000000000000000000000000000000000815260040161111490612c06565b60405180910390fd5b600460008054906101000a900473ffffffffffffffffffffffffffffffffffffffff1673ffffffffffffffffffffffffffffffffffffffff166398696eb56040518163ffffffff1660e01b8152600401602060405180830381865afa15801561118a573d6000803e3d6000fd5b505050506040513d601f19601f820116820180604052508101906111ae919061251d565b10156112445760008054906101000a900473ffffffffffffffffffffffffffffffffffffffff1673ffffffffffffffffffffffffffffffffffffffff1663bdfd9877836040518263ffffffff1660e01b815260040161120d91906124ed565b600060405180830381600087803b15801561122757600080fd5b505af115801561123b573d6000803e3d6000fd5b5050505061151c565b6000805b6002805490508110156112e3573373ffffffffffffffffffffffffffffffffffffffff16600282815481106112805761127f612c26565b5b9060005260206000200160009054906101000a900473ffffffffffffffffffffffffffffffffffffffff1673ffffffffffffffffffffffffffffffffffffffff1614156112d057600191506112e3565b80806112db90612c84565b915050611248565b508015611325576040517f08c379a000000000000000000000000000000000000000000000000000000000815260040161131c90612d3f565b60405180910390fd5b6002339080600181540180825580915050600190039060005260206000200160009091909190916101000a81548173ffffffffffffffffffffffffffffffffffffffff021916908373ffffffffffffffffffffffffffffffffffffffff160217905550600260008054906101000a900473ffffffffffffffffffffffffffffffffffffffff1673ffffffffffffffffffffffffffffffffffffffff166398696eb56040518163ffffffff1660e01b8152600401602060405180830381865afa1580156113f5573d6000803e3d6000fd5b505050506040513d601f19601f82011682018060405250810190611419919061251d565b6114239190612d8e565b6002805490501061151a5760008054906101000a900473ffffffffffffffffffffffffffffffffffffffff1673ffffffffffffffffffffffffffffffffffffffff1663bdfd9877846040518263ffffffff1660e01b815260040161148791906124ed565b600060405180830381600087803b1580156114a157600080fd5b505af11580156114b5573d6000803e3d6000fd5b50505050600067ffffffffffffffff8111156114d4576114d3611f2e565b5b6040519080825280602002602001820160405280156115025781602001602082028036833780820191505090505b5060029080519060200190611518929190611df3565b505b505b5050565b8460ff16600460003373ffffffffffffffffffffffffffffffffffffffff1673ffffffffffffffffffffffffffffffffffffffff16815260200190815260200160002060010160006003811061157957611578612c26565b5b602091828204019190069054906101000a900460ff1660ff16148061160d57508460ff16600460003373ffffffffffffffffffffffffffffffffffffffff1673ffffffffffffffffffffffffffffffffffffffff1681526020019081526020016000206001016001600381106115f2576115f1612c26565b5b602091828204019190069054906101000a900460ff1660ff16145b8061168757508460ff16600460003373ffffffffffffffffffffffffffffffffffffffff1673ffffffffffffffffffffffffffffffffffffffff16815260200190815260200160002060010160026003811061166c5761166b612c26565b5b602091828204019190069054906101000a900460ff1660ff16145b6116c6576040517f08c379a00000000000000000000000000000000000000000000000000000000081526004016116bd90612e31565b60405180910390fd5b6000858585856040516020016116df9493929190612f2c565b6040516020818303038152906040528051906020012090506006600082815260200190815260200160002060000160149054906101000a900460ff1661175a576040517f08c379a000000000000000000000000000000000000000000000000000000000815260040161175190612fe8565b60405180910390fd5b6007600082815260200190815260200160002060008360ff1660ff168152602001908152602001600020339080600181540180825580915050600190039060005260206000200160009091909190916101000a81548173ffffffffffffffffffffffffffffffffffffffff021916908373ffffffffffffffffffffffffffffffffffffffff1602179055507f43c853095c2752648493c88b4baac4d580d2594ffb00c6f1d4242d844514f7838585858560405161181a9493929190613017565b60405180910390a160036007600083815260200190815260200160002060008460ff1660ff16815260200190815260200160002080549050106118a1577fe23f5229de535c091e3b7bec2665f5d698192d3b31393066e8987b7a05076b6c8585858560405161188c9493929190613017565b60405180910390a16118a085858585611bd4565b5b505050505050565b6000600160149054906101000a900460ff16905090565b60006118cb33611c6b565b90506000818585856040516020016118e69493929190612f2c565b60405160208183030381529060405280519060200120905060405180604001604052803373ffffffffffffffffffffffffffffffffffffffff168152602001600115158152506006600083815260200190815260200160002060008201518160000160006101000a81548173ffffffffffffffffffffffffffffffffffffffff021916908373ffffffffffffffffffffffffffffffffffffffff16021790555060208201518160000160146101000a81548160ff0219169083151502179055509050507f3ed01f2c3fc24c6b329d931e35b03e390d23497d22b3f90e15b600343e93df11828686866040516119de9493929190613063565b60405180910390a15050505050565b6119f5611dd1565b6119fd611dd1565b611a0683611c6b565b81600060038110611a1a57611a19612c26565b5b602002019060ff16908160ff168152505080600060038110611a3f57611a3e612c26565b5b602002015181600160038110611a5857611a57612c26565b5b602002019060ff16908160ff16815250505b80600060038110611a7e57611a7d612c26565b5b602002015160ff1681600160038110611a9a57611a99612c26565b5b602002015160ff161415611adb57611ab183611c6b565b81600160038110611ac557611ac4612c26565b5b602002019060ff16908160ff1681525050611a6a565b80600160038110611aef57611aee612c26565b5b602002015181600260038110611b0857611b07612c26565b5b602002019060ff16908160ff16815250505b80600060038110611b2e57611b2d612c26565b5b602002015160ff1681600260038110611b4a57611b49612c26565b5b602002015160ff161480611b93575080600160038110611b6d57611b6c612c26565b5b602002015160ff1681600260038110611b8957611b88612c26565b5b602002015160ff16145b15611bcb57611ba183611c6b565b81600260038110611bb557611bb4612c26565b5b602002019060ff16908160ff1681525050611b1a565b80915050919050565b60008054906101000a900473ffffffffffffffffffffffffffffffffffffffff1673ffffffffffffffffffffffffffffffffffffffff1663e7bdde3b858585856040518563ffffffff1660e01b8152600401611c339493929190613017565b600060405180830381600087803b158015611c4d57600080fd5b505af1158015611c61573d6000803e3d6000fd5b5050505050505050565b600080600a905060008160ff166003600081819054906101000a900460ff1680929190611c97906130af565b91906101000a81548160ff021916908360ff16021790555060ff1643611cbd91906130d9565b4085604051602001611cd0929190613138565b6040516020818303038152906040528051906020012060001c611cf39190613164565b905060fa600360009054906101000a900460ff1660ff161115611d2d576000600360006101000a81548160ff021916908360ff1602179055505b8092505050919050565b826003601f01602090048101928215611dc05791602002820160005b83821115611d9157835183826101000a81548160ff021916908360ff1602179055509260200192600101602081600001049283019260010302611d53565b8015611dbe5782816101000a81549060ff0219169055600101602081600001049283019260010302611d91565b505b509050611dcd9190611e7d565b5090565b6040518060600160405280600390602082028036833780820191505090505090565b828054828255906000526020600020908101928215611e6c579160200282015b82811115611e6b5782518260006101000a81548173ffffffffffffffffffffffffffffffffffffffff021916908373ffffffffffffffffffffffffffffffffffffffff16021790555091602001919060010190611e13565b5b509050611e799190611e7d565b5090565b5b80821115611e96576000816000905550600101611e7e565b5090565b6000604051905090565b600080fd5b600080fd5b60008115159050919050565b611ec381611eae565b8114611ece57600080fd5b50565b600081359050611ee081611eba565b92915050565b600060208284031215611efc57611efb611ea4565b5b6000611f0a84828501611ed1565b91505092915050565b600080fd5b600080fd5b6000601f19601f8301169050919050565b7f4e487b7100000000000000000000000000000000000000000000000000000000600052604160045260246000fd5b611f6682611f1d565b810181811067ffffffffffffffff82111715611f8557611f84611f2e565b5b80604052505050565b6000611f98611e9a565b9050611fa48282611f5d565b919050565b600067ffffffffffffffff821115611fc457611fc3611f2e565b5b611fcd82611f1d565b9050602081019050919050565b82818337600083830152505050565b6000611ffc611ff784611fa9565b611f8e565b90508281526020810184848401111561201857612017611f18565b5b612023848285611fda565b509392505050565b600082601f8301126120405761203f611f13565b5b8135612050848260208601611fe9565b91505092915050565b6000819050919050565b61206c81612059565b811461207757600080fd5b50565b60008135905061208981612063565b92915050565b600080604083850312156120a6576120a5611ea4565b5b600083013567ffffffffffffffff8111156120c4576120c3611ea9565b5b6120d08582860161202b565b92505060206120e18582860161207a565b9150509250929050565b600060039050919050565b600081905092915050565b6000819050919050565b600060ff82169050919050565b6121218161210b565b82525050565b60006121338383612118565b60208301905092915050565b6000602082019050919050565b612155816120eb565b61215f81846120f6565b925061216a82612101565b8060005b8381101561219b5781516121828782612127565b965061218d8361213f565b92505060018101905061216e565b505050505050565b60006060820190506121b8600083018461214c565b92915050565b6121c781612059565b82525050565b60006020820190506121e260008301846121be565b92915050565b600073ffffffffffffffffffffffffffffffffffffffff82169050919050565b6000612213826121e8565b9050919050565b61222381612208565b811461222e57600080fd5b50565b6000813590506122408161221a565b92915050565b60008060006060848603121561225f5761225e611ea4565b5b600061226d86828701612231565b935050602084013567ffffffffffffffff81111561228e5761228d611ea9565b5b61229a8682870161202b565b92505060406122ab8682870161207a565b9150509250925092565b6000602082840312156122cb576122ca611ea4565b5b60006122d984828501612231565b91505092915050565b6122eb8161210b565b81146122f657600080fd5b50565b600081359050612308816122e2565b92915050565b600080600080600060a0868803121561232a57612329611ea4565b5b6000612338888289016122f9565b955050602061234988828901612231565b945050604086013567ffffffffffffffff81111561236a57612369611ea9565b5b6123768882890161202b565b93505060606123878882890161207a565b9250506080612398888289016122f9565b9150509295509295909350565b6123ae81611eae565b82525050565b60006020820190506123c960008301846123a5565b92915050565b600082825260208201905092915050565b7f43616c6c6572206973206e6f7420636f6e7472616374206f776e657200000000600082015250565b6000612416601c836123cf565b9150612421826123e0565b602082019050919050565b6000602082019050818103600083015261244581612409565b9050919050565b7f436f6e74726163742063757272656e746c79206e6f74206f7065726174696f6e60008201527f616c000000000000000000000000000000000000000000000000000000000000602082015250565b60006124a86022836123cf565b91506124b38261244c565b604082019050919050565b600060208201905081810360008301526124d78161249b565b9050919050565b6124e781612208565b82525050565b600060208201905061250260008301846124de565b92915050565b60008151905061251781612063565b92915050565b60006020828403121561253357612532611ea4565b5b600061254184828501612508565b91505092915050565b600060408201905061255f60008301856124de565b61256c60208301846121be565b9392505050565b7f526567697374726174696f6e2066656520697320726571756972656400000000600082015250565b60006125a9601c836123cf565b91506125b482612573565b602082019050919050565b600060208201905081810360008301526125d88161259c565b9050919050565b6000815190506125ee81611eba565b92915050565b60006020828403121561260a57612609611ea4565b5b6000612618848285016125df565b91505092915050565b7f43616c6c6572206973206e6f7420612066756e646564206169726c696e650000600082015250565b6000612657601e836123cf565b915061266282612621565b602082019050919050565b600060208201905081810360008301526126868161264a565b9050919050565b600081519050919050565b60005b838110156126b657808201518184015260208101905061269b565b838111156126c5576000848401525b50505050565b60006126d68261268d565b6126e081856123cf565b93506126f0818560208601612698565b6126f981611f1d565b840191505092915050565b600060608201905061271960008301866124de565b818103602083015261272b81856126cb565b905061273a60408301846121be565b949350505050565b7f4e6f74207265676973746572656420617320616e206f7261636c650000000000600082015250565b6000612778601b836123cf565b915061278382612742565b602082019050919050565b600060208201905081810360008301526127a78161276b565b9050919050565b7f43616c6c6572206973206e6f7420612072656769737465726564206169726c6960008201527f6e65000000000000000000000000000000000000000000000000000000000000602082015250565b600061280a6022836123cf565b9150612815826127ae565b604082019050919050565b60006020820190508181036000830152612839816127fd565b9050919050565b7f46756e643a203130206574686572000000000000000000000000000000000000600082015250565b6000612876600e836123cf565b915061288182612840565b602082019050919050565b600060208201905081810360008301526128a581612869565b9050919050565b7f466c69676874206e6f7420726567697374657265640000000000000000000000600082015250565b60006128e26015836123cf565b91506128ed826128ac565b602082019050919050565b60006020820190508181036000830152612911816128d5565b9050919050565b7f466c69676874206c616e64656400000000000000000000000000000000000000600082015250565b600061294e600d836123cf565b915061295982612918565b602082019050919050565b6000602082019050818103600083015261297d81612941565b9050919050565b600060808201905061299960008301876124de565b6129a660208301866124de565b81810360408301526129b881856126cb565b90506129c760608301846121be565b95945050505050565b7f496e737572616e636520666f7220666c696768742068617320616c726561647960008201527f206265656e207075726368617365640000000000000000000000000000000000602082015250565b6000612a2c602f836123cf565b9150612a37826129d0565b604082019050919050565b60006020820190508181036000830152612a5b81612a1f565b9050919050565b7f496e737572616e63652076616c7565206d75737420626520312065746865722060008201527f6f72206c65737300000000000000000000000000000000000000000000000000602082015250565b6000612abe6027836123cf565b9150612ac982612a62565b604082019050919050565b60006020820190508181036000830152612aed81612ab1565b9050919050565b600060a082019050612b0960008301886124de565b8181036020830152612b1b81876126cb565b9050612b2a60408301866121be565b612b3760608301856124de565b612b4460808301846121be565b9695505050505050565b7f416464726573732063616e6e6f74206265203078300000000000000000000000600082015250565b6000612b846015836123cf565b9150612b8f82612b4e565b602082019050919050565b60006020820190508181036000830152612bb381612b77565b9050919050565b7f4169726c696e6520616c72656164792072656769737465726564000000000000600082015250565b6000612bf0601a836123cf565b9150612bfb82612bba565b602082019050919050565b60006020820190508181036000830152612c1f81612be3565b9050919050565b7f4e487b7100000000000000000000000000000000000000000000000000000000600052603260045260246000fd5b7f4e487b7100000000000000000000000000000000000000000000000000000000600052601160045260246000fd5b6000612c8f82612059565b91507fffffffffffffffffffffffffffffffffffffffffffffffffffffffffffffffff821415612cc257612cc1612c55565b5b600182019050919050565b7f46756e6374696f6e2068617320616c7265616479206265656e2063616c6c656460008201527f2070726576696f75736c79000000000000000000000000000000000000000000602082015250565b6000612d29602b836123cf565b9150612d3482612ccd565b604082019050919050565b60006020820190508181036000830152612d5881612d1c565b9050919050565b7f4e487b7100000000000000000000000000000000000000000000000000000000600052601260045260246000fd5b6000612d9982612059565b9150612da483612059565b925082612db457612db3612d5f565b5b828204905092915050565b7f496e64657820646f6573206e6f74206d61746368206f7261636c65207265717560008201527f6573740000000000000000000000000000000000000000000000000000000000602082015250565b6000612e1b6023836123cf565b9150612e2682612dbf565b604082019050919050565b60006020820190508181036000830152612e4a81612e0e565b9050919050565b60008160f81b9050919050565b6000612e6982612e51565b9050919050565b612e81612e7c8261210b565b612e5e565b82525050565b60008160601b9050919050565b6000612e9f82612e87565b9050919050565b6000612eb182612e94565b9050919050565b612ec9612ec482612208565b612ea6565b82525050565b600081905092915050565b6000612ee58261268d565b612eef8185612ecf565b9350612eff818560208601612698565b80840191505092915050565b6000819050919050565b612f26612f2182612059565b612f0b565b82525050565b6000612f388287612e70565b600182019150612f488286612eb8565b601482019150612f588285612eda565b9150612f648284612f15565b60208201915081905095945050505050565b7f466c69676874206f722074696d657374616d7020646f206e6f74206d6174636860008201527f206f7261636c6520726571756573740000000000000000000000000000000000602082015250565b6000612fd2602f836123cf565b9150612fdd82612f76565b604082019050919050565b6000602082019050818103600083015261300181612fc5565b9050919050565b6130118161210b565b82525050565b600060808201905061302c60008301876124de565b818103602083015261303e81866126cb565b905061304d60408301856121be565b61305a6060830184613008565b95945050505050565b60006080820190506130786000830187613008565b61308560208301866124de565b818103604083015261309781856126cb565b90506130a660608301846121be565b95945050505050565b60006130ba8261210b565b915060ff8214156130ce576130cd612c55565b5b600182019050919050565b60006130e482612059565b91506130ef83612059565b92508282101561310257613101612c55565b5b828203905092915050565b6000819050919050565b6000819050919050565b61313261312d8261310d565b613117565b82525050565b60006131448285613121565b6020820191506131548284612eb8565b6014820191508190509392505050565b600061316f82612059565b915061317a83612059565b92508261318a57613189612d5f565b5b82820690509291505056fea2646970667358221220f65095ef23a3d39ab50bbc4d7d3ac436257b2b917f3c3109166f1201b928bc3964736f6c634300080a0033",
  "immutableReferences": {},
  "source": "// SPDX-License-Identifier: MIT\npragma solidity >=0.8.9; // >=0.8.0 has SafeMath built-in\n\nimport \"./FlightSuretyData.sol\";\n\n\n/************************************************** */\n/* FlightSurety Smart Contract                      */\n/************************************************** */\ncontract FlightSuretyApp {\n   \n    /********************************************************************************************/\n    /*                                       DATA VARIABLES                                     */\n    /********************************************************************************************/\n\tFlightSuretyData flightSuretyData;\n\taddress private contractOwner; // address used to deploy contract\n\tbool private operational = true;\n\taddress[] private multiCalls = new address[](0);\n\t\n\t\n\t// \t\t\t\t\t\t\t\t\t\tEVENT DEFINITIONS:\n\tevent AirlineRegistered(address addr);\n\tevent AirlineFunded(address addr);\n\tevent FlightRegistered(address airline, string flight, uint256 timestamp);\n\tevent InsuranceBought(\n\t\taddress airline,\n\t\tstring flight,\n\t\tuint256 timestamp,\n\t\taddress passenger,\n\t\tuint256 amount\n\t);\n\tevent AccountWithdrawn(address passenger, uint256 amount);\t\n\n \n    /********************************************************************************************/\n    /*                                       FUNCTION MODIFIERS                                 */\n    /********************************************************************************************/\n\n    // Modifiers help avoid duplication of code. They are typically used to validate something\n    // before a function is allowed to be executed.\n\t\n\tmodifier requireIsOperational() {\n\t\trequire(operational, \"Contract currently not operational\");\n\t\t_; //modifiers require '_' which indicates where the function body will be included at\n\t}\n\n    modifier requireContractOwner() {\n\t\trequire(msg.sender == contractOwner, \"Caller is not contract owner\");\n\t\t_;\n\t}\n\t\n\tmodifier requireIsAirline() {\n\t\trequire(\n\t\t\tflightSuretyData.isAirline(msg.sender),\n\t\t\t\"Caller is not a registered airline\"\n\t\t);\n\t\t_;\n\t}\n\t\n\tmodifier requireIsFundedAirline() {\n\t\trequire(\n\t\t\tflightSuretyData.isFundedAirline(msg.sender),\n\t\t\t\"Caller is not a funded airline\"\n\t\t);\n\t\t_;\n\t}\n\t\n\tmodifier requireIsValid(address addr) {\n\t\trequire(addr != address(0), \"Address cannot be 0x0\");\n\t\t_;\n\t}\n\t\n\t\tmodifier requireIsFlight(\n\t\t\taddress airline,\n\t\t\tstring memory flight,\n\t\t\tuint256 timestamp\n\t\t) {\n\t\t\trequire(\n\t\t\t\t!flightSuretyData.isFlight(airline, flight, timestamp),\n\t\t\t\t\"Flight not registered\"\n\t\t\t);\n\t\t\t_;\n\t\t}\t\n\t\n\tmodifier requireIsNotLandedFlight(\n\t\taddress airline,\n\t\tstring memory flight,\n\t\tuint256 timestamp\n\t) {\n\t\trequire(\n\t\t\t!flightSuretyData.isLandedFlight(airline,flight,timestamp),\n\t\t\t\"Flight landed\"\n\t\t);\n\t\t_;\n\t}\n\n\tmodifier requireIsNotInsuredFlight(\n\t\taddress airline,\n\t\tstring memory flight,\n\t\tuint256 timestamp\n\t) {\n\t\trequire(\n\t\t\t!flightSuretyData.isInsured(msg.sender, airline, flight, timestamp),\n\t\t\t\"Insurance for flight has already been purchased\"\n\t\t);\n\t\t_;\n\t}\n\n    /********************************************************************************************/\n    /*                                       CONSTRUCTOR                                        */\n    /********************************************************************************************/\n\n    constructor(address dataContract) {\n\t\tcontractOwner = msg.sender;\n\t\tflightSuretyData = FlightSuretyData(dataContract);\n\t}\n\n    /********************************************************************************************/\n    /*                                       UTILITY FUNCTIONS                                  */\n    /********************************************************************************************/\n\n    function isOperational() public view returns (bool) {\n\t\treturn operational;\n\t}\n\t\n\tfunction setOperatingStatus(bool mode) public requireContractOwner {\n\t\toperational = mode;\n\t}\n              \n\n    /********************************************************************************************/\n    /*                                     SMART CONTRACT FUNCTIONS                             */\n    /********************************************************************************************/\n\nfunction registerAirline(address addr)\n        public\n        requireIsOperational\n        requireIsFundedAirline\n        requireIsValid(addr)\n    {\n        require(\n            !flightSuretyData.isAirline(addr),\n            \"Airline already registered\"\n        );\n\n        if (flightSuretyData.getAirlinesLength() < 4) {\n            flightSuretyData.registerAirline(addr);\n            return;\n        }\n\n        bool isDuplicate = false;\n        for (uint256 i = 0; i < multiCalls.length; i++) {\n            if (multiCalls[i] == msg.sender) {\n                isDuplicate = true;\n                break;\n            }\n        }\n        require(!isDuplicate, \"Function has already been called previously\");\n\n        multiCalls.push(msg.sender);\n\n        if (multiCalls.length >= flightSuretyData.getAirlinesLength() / 2) {\n            flightSuretyData.registerAirline(addr);\n            multiCalls = new address[](0);\n        }\n    }\n\n    function fundAirline()\n        public\n        payable\n        requireIsOperational\n        requireIsAirline\n    {\n        require(msg.value == 10 ether, \"Fund: 10 ether\");\n\n        flightSuretyData.fundAirline(msg.sender);\n\n        emit AirlineFunded(msg.sender);\n    }\n\n    function registerFlight(string memory flight, uint256 timestamp)\n        public\n        requireIsOperational\n        requireIsFundedAirline\n    {\n        flightSuretyData.registerFlight(msg.sender, flight, timestamp);\n        emit FlightRegistered(msg.sender, flight, timestamp);\n    }\n\n    function buy(\n        address airline,\n        string memory flight,\n        uint256 timestamp\n    )\n        public\n        payable\n        requireIsOperational\n        requireIsFlight(airline, flight, timestamp)\n        requireIsNotLandedFlight(airline, flight, timestamp)\n        requireIsNotInsuredFlight(airline, flight, timestamp)\n    {\n        require(\n            msg.value > 0 && msg.value <= 1 ether,\n            \"Insurance value must be 1 ether or less\"\n        );\n\n        flightSuretyData.buy(airline, flight, timestamp, msg.sender, msg.value);\n\n        emit InsuranceBought(airline, flight, timestamp, msg.sender, msg.value);\n    }\n\n    function pay() public requireIsOperational {\n        uint256 amount = flightSuretyData.pay(msg.sender);\n        emit AccountWithdrawn(msg.sender, amount);\n    }\n\n    function processFlightStatus(\n        address airline,\n        string memory flight,\n        uint256 timestamp,\n        uint8 statusCode\n    ) internal {\n        flightSuretyData.processFlightStatus(\n            airline,\n            flight,\n            timestamp,\n            statusCode\n        );\n    }\n\n    // Generate request for oracles to fetch flight information\n    function fetchFlightStatus(\n        address airline,\n        string memory flight,\n        uint256 timestamp\n    ) external {\n        uint8 index = getRandomIndex(msg.sender);\n\n        // Generate unique key for storing request\n        bytes32 key = keccak256(\n            abi.encodePacked(index, airline, flight, timestamp)\n        );\n        oracleResponseInfo[key] = ResponseInfo({\n            requester: msg.sender,\n            isOpen: true\n        });\n\n        emit OracleRequest(index, airline, flight, timestamp);\n    }\n\n    // REGION ORACLE MANAGEMENT\n\n    // Incremented to add pseudo-randomness at various points\n    uint8 private nonce = 0;\n\n    // Fee to be paid when registering oracle\n    uint256 public constant REGISTRATION_FEE = 1 ether;\n\n    // Number of oracles that must respond for valid status\n    uint256 private constant MIN_RESPONSES = 3;\n\n    struct Oracle {\n        bool isRegistered;\n        uint8[3] indexes;\n    }\n\n    // Track all registered oracles\n    mapping(address => Oracle) private oracles;\n\n    // Model for responses from oracles\n    struct ResponseInfo {\n        address requester; // Account that requested status\n        bool isOpen; // If open, oracle responses are accepted\n    }\n\n    mapping(uint8 => address[]) responses; // Mapping key is the status code reported\n    // This lets us group responses and identify\n    // the response that majority of the oracles\n\n    // Track all oracle responses\n    // Key = hash(index, flight, timestamp)\n    mapping(bytes32 => ResponseInfo) private oracleResponseInfo;\n    mapping(bytes32 => mapping(uint8 => address[])) private oracleResponses;\n\n    // Event fired each time an oracle submits a response\n    event FlightStatusInfo(\n        address airline,\n        string flight,\n        uint256 timestamp,\n        uint8 status\n    );\n\n    event OracleReport(\n        address airline,\n        string flight,\n        uint256 timestamp,\n        uint8 status\n    );\n\n    // Event fired when flight status request is submitted\n    // Oracles track this and if they have a matching index\n    // they fetch data and submit a response\n    event OracleRequest(\n        uint8 index,\n        address airline,\n        string flight,\n        uint256 timestamp\n    );\n\n    // Register an oracle with the contract\n    function registerOracle() public payable {\n        // Require registration fee\n        require(msg.value >= REGISTRATION_FEE, \"Registration fee is required\");\n\n        uint8[3] memory indexes = generateIndexes(msg.sender);\n\n        oracles[msg.sender] = Oracle({isRegistered: true, indexes: indexes});\n    }\n\n    function getMyIndexes() public view returns (uint8[3] memory) {\n        require(\n            oracles[msg.sender].isRegistered,\n            \"Not registered as an oracle\"\n        );\n\n        return oracles[msg.sender].indexes;\n    }\n\n    // Called by oracle when a response is available to an outstanding request\n    // For the response to be accepted, there must be a pending request that is open\n    // and matches one of the three Indexes randomly assigned to the oracle at the\n    // time of registration (i.e. uninvited oracles are not welcome)\n    function submitOracleResponse(\n        uint8 index,\n        address airline,\n        string memory flight,\n        uint256 timestamp,\n        uint8 statusCode\n    ) external {\n        require(\n            (oracles[msg.sender].indexes[0] == index) ||\n                (oracles[msg.sender].indexes[1] == index) ||\n                (oracles[msg.sender].indexes[2] == index),\n            \"Index does not match oracle request\"\n        );\n\n        bytes32 key = keccak256(\n            abi.encodePacked(index, airline, flight, timestamp)\n        );\n        require(\n            oracleResponseInfo[key].isOpen,\n            \"Flight or timestamp do not match oracle request\"\n        );\n\n        oracleResponses[key][statusCode].push(msg.sender);\n\n        // Information isn't considered verified until at least MIN_RESPONSES\n        // oracles respond with the *** same *** information\n        emit OracleReport(airline, flight, timestamp, statusCode);\n        if (\n            oracleResponses[key][statusCode].length >= MIN_RESPONSES\n        ) {\n            emit FlightStatusInfo(airline, flight, timestamp, statusCode);\n\n            // Handle flight status as appropriate\n            processFlightStatus(airline, flight, timestamp, statusCode);\n        }\n    }\n\n    function getFlightKey(\n        address airline,\n        string memory flight,\n        uint256 timestamp\n    ) internal pure returns (bytes32) {\n        return keccak256(abi.encodePacked(airline, flight, timestamp));\n    }\n\n    // Returns array of three non-duplicating integers from 0-9\n    function generateIndexes(address account)\n        internal\n        returns (uint8[3] memory)\n    {\n        uint8[3] memory indexes;\n        indexes[0] = getRandomIndex(account);\n\n        indexes[1] = indexes[0];\n        while (indexes[1] == indexes[0]) {\n            indexes[1] = getRandomIndex(account);\n        }\n\n        indexes[2] = indexes[1];\n        while ((indexes[2] == indexes[0]) || (indexes[2] == indexes[1])) {\n            indexes[2] = getRandomIndex(account);\n        }\n\n        return indexes;\n    }\n\n    // Returns array of three non-duplicating integers from 0-9\n    function getRandomIndex(address account) internal returns (uint8) {\n        uint8 maxValue = 10;\n\n        // Pseudo random number...the incrementing nonce adds variation\n        uint8 random = uint8(\n            uint256(\n                keccak256(\n                    abi.encodePacked(blockhash(block.number - nonce++), account)\n                )\n            ) % maxValue\n        );\n\n        if (nonce > 250) {\n            nonce = 0; // Can only fetch blockhashes for last 256 blocks so we adapt\n        }\n\n        return random;\n    }\n\n    // endregion\n}\n  ",
  "sourcePath": "C:\\Users\\User\\blockchain\\FlightSurety\\contracts\\FlightSuretyApp.sol",
  "compiler": {
    "name": "solc",
    "version": "0.8.10+commit.fc410830.Emscripten.clang"
  },
  "schemaVersion": "3.4.3",
  "updatedAt": "2021-11-15T09:00:58.500Z",
  "devdoc": {
    "kind": "dev",
    "methods": {},
    "version": 1
  },
  "userdoc": {
    "kind": "user",
    "methods": {},
    "version": 1
  }
}